:020000040800F2
:100000005808002065010008C9010008CB0100085C
:10001000CD010008CF010008D10100080000000058
:10002000000000000000000000000000D3010008F4
:10003000D501000800000000D70100089D28000835
:100040006B1700086F170008711700086D1700087C
:100050002121000800000000DB01000845380008ED
:10006000493800086137000863370008791600082E
:100070007B1600087D1600087F1600089D290008E1
:10008000C9290008CB290008CD290008D12900087A
:10009000492A0008951F0008691D0008000000009B
:1000A0000000000000000000000000000000000050
:1000B000D11500086D140008E5150008D9300008B6
:1000C00000F002F800F03EF80CA030C80838241800
:1000D0002D18A246671EAB4654465D46AC4201D180
:1000E00000F030F87E460F3E0FCCB6460126334274
:1000F00000D0FB1AA246AB4633431847085B00000A
:10010000285B0000103A02D378C878C1FAD85207A9
:1001100001D330C830C101D504680C6070470000BD
:100120000023002400250026103A01D378C1FBD813
:10013000520700D330C100D50B6070471FB51FBDFB
:1001400010B510BD01F06EF81146FFF7F7FF03F090
:100150008FFC01F086F803B4FFF7F2FF03BC01F057
:10016000BBF8000020480168204A11430160204884
:100170002049016020481F49016020481D49016055
:100180001F481C490160184801681E4A114001605F
:100190001D481E4901601E481E4901601E481F4936
:1001A00001601F481F4901601B481F4901601F482B
:1001B0001F4901601F48204901601C481A4901601D
:1001C0001E4880471E480047FEE7FEE7FEE7FEE7C1
:1001D000FEE7FEE7FEE7FEE7FEE7FEE719481A49FD
:1001E0001A4A1B4B7047000000300040010000001D
:1001F0003C08014000015FA07C080140BC080140B0
:10020000FC080140FEFFFFFF1030004010F05FA02F
:10021000DC03004001F05FA00010024020008000DD
:100220005C10024080005FA000000000002002403F
:10023000400080003C210240000F5FA0ED28000834
:10024000C10000085802002058080020580400206F
:100250005804002010B5202A04DB0146203A9140C2
:10026000002010BD914020239C1A0346E34019430F
:10027000904010BD002203098B422CD3030A8B420D
:1002800011D300239C464EE003460B433CD400228E
:1002900043088B4231D303098B421CD3030A8B42A0
:1002A00001D394463FE0C3098B4201D3CB01C01A6E
:1002B000524183098B4201D38B01C01A5241430939
:1002C0008B4201D34B01C01A524103098B4201D327
:1002D0000B01C01A5241C3088B4201D3CB00C01A94
:1002E000524183088B4201D38B00C01A524143080C
:1002F0008B4201D34B00C01A5241411A00D2014631
:100300005241104670475DE0CA0F00D049420310C9
:1003100000D34042534000229C4603098B422DD318
:10032000030A8B4212D3FC22890112BA030A8B42C0
:100330000CD3890192118B4208D3890192118B420F
:1003400004D389013AD0921100E08909C3098B4294
:1003500001D3CB01C01A524183098B4201D38B01D7
:10036000C01A524143098B4201D34B01C01A52417A
:1003700003098B4201D30B01C01A5241C3088B42BF
:1003800001D3CB00C01A524183088B4201D38B00AA
:10039000C01A5241D9D243088B4201D34B00C01A34
:1003A0005241411A00D20146634652415B10104649
:1003B00001D34042002B00D54942704763465B1091
:1003C00000D3404201B50020C046C04602BD704780
:1003D000704770470246C80FC00781434B0030B5D5
:1003E0004B405B009B0D20D01923DB06C91801236D
:1003F0001B05994220DB0324A40704251346AB40C8
:100400000BD3002B04D1EB0613409B00E34204D432
:1004100001246407002312195941FF231B05994247
:100420000BD2C9000143500F09E0CB0204D50143B0
:100430000803024305D0054830BDFF21C905084324
:1004400030BD084607210905884330BD0000C07F44
:10045000F0B50C46871A9C410D46861A9D4103D281
:10046000C01BA141D21963410D0D1F0DC94EEC1BDC
:10047000AE435CD07F057F0D0026002F51D02D05A7
:10048000AC46A943DD020123ED0A1B051D432023D1
:100490001B1B24D41746E740381871412F46E7400C
:1004A000CC199D402818314661410C0D27D161447B
:1004B0009A4013D50023401C594152000ED14008E8
:1004C000400001224B005205D34207D305204007CC
:1004D000C14201D5B04900E0B0493046F0BD6B00E3
:1004E000002A00D001229A181F23203C1B1B01D593
:1004F000002302E0E540281871410C0DD7D00124FB
:1005000024050919C407CD0740084908E40F28430A
:100510006144002CD5D00024401C61419A40D0D1C8
:10052000CDE76A05520DD9D1C90FC907D5E79C4D52
:100530004E00002801D0012400E0002434195F009F
:10054000002A01D0012600E00026BE19954FAC42DA
:100550000CD8AE420AD8B44206D001256D05EC4253
:10056000BCD010461946F0BD9942FCD00020394657
:10057000F0BDF0B51FB40C460F46811A9F412546C9
:10058000861A9D4106D20125ED076F40401ABC41F5
:1005900052187B41210D1E0D8D1BAC467D4D8D43A8
:1005A0007ED075056D0D7CD00D05AE46AC431B03AA
:1005B0001B0B794D52429D41202366469B1B14D351
:1005C0001746F740381800260090744160462F46C1
:1005D0000741E41900989D402818664116D47146D9
:1005E00071189A4025D5012320E093182A466A41C4
:1005F0005200002B00D0521C1E23203E9B1B002BC0
:1006000061DD3541EE1728186641E8D500187641BE
:100610005B1C9A4000D3401C4B05F3181524E340A3
:1006200010D3002B52D071467118D30FC01802D3CB
:10063000491C05B0F0BD0123DB079A42F9D14008FF
:100640004000F6E701225205B21801D1002853D02C
:100650000123CC0ADB029943891E002A08D1020C2F
:1006600003D0020C0004103902E0024600202039B9
:100670000023550B05D112020823550B01D152015D
:100680000D23550C01D112011B1DD50C01D1920077
:100690009B1C150D01D152005B1C2025EE1A01E0B8
:1006A0002CE022E00546F54015439840CA1AE107C0
:1006B00069181305C918002ABBDA03204007081877
:1006C000C10FC9070FE071466118B2E7F107400892
:1006D0000843711071444A000CD001235B059A4213
:1006E000A7D2C90FC9070020A3E74905490D26D1A4
:1006F000002001E00028F4D100219AE7284D66008F
:10070000002801D0012100E0002171185F00002ABB
:1007100001D0012600E00026BE19224FA94210D8C0
:10072000AE420ED8B14208D001256D05E94206D08F
:100730001946A802414010467BE79C4201D0214661
:1007400077E70020394674E710B50C465C4005D5C4
:100750000124E4076340FFF70CFF10BDFFF778FEAC
:1007600010BD30B40C465C4004D50124E40763405E
:1007700030BC6DE630BCFCE670B50124E407614096
:100780000D465D4002D4FFF763FE70BD6340FFF786
:10079000F0FE70BDFF0700000000F0FF0000F07FDA
:1007A0000000E0FF0000F87FF0B5F94D0C091E09CC
:1007B0002C402E402F468BB0A7437DD0B543FCD0B4
:1007C000002E7AD0002CFCD00D465D40ED0F254365
:1007D000AC1BFF25AD0464190894C502440DC90281
:1007E0002143500DDC0204430120C00701430443B0
:1007F000D2020191200C110C00958C460104234675
:100800008B430A9161460904E24D8A430991010A2A
:100810007D4449198039097805464D4301266D18F4
:10082000F605751B6943C90C640B891C4C4364189D
:10083000B5012C1B250C2E04B4434C434D43210C15
:10084000691889090591009DE90701D00121C907AF
:1008500004912C4601996708CD072F434C08059D4C
:10086000E10B4D432D0C29466646754302950D4616
:1008700045432E46029D7D1BB44100950D465D43C8
:1008800001942C0C2F040D465543AE462D0C3D43D0
:10089000029503947546049C2D04641B049406D2AF
:1008A000029C039D641C002675410395029401ACD3
:1008B00070CC009F7D1B01E03EE162E1B441090480
:1008C0000095079101940599A4086143090C0C4611
:1008D0004443650BE7040C4666467443A646640B26
:1008E0003C43039502947446049DE4042C1B049439
:1008F00006D2029C039D641C002675410395029458
:1009000001AC70CC009F7D1BB44101940C465C434C
:100910000095650FE7000C465443A646640F3C4320
:10092000039502947446049DE4002C1B049406D2A3
:10093000029C039D641C002675410395029401AC42
:1009400070CC009F7D1BB441AE09AF06049DC90069
:10095000AD092F43049DA406AD060495079D3443BD
:1009600069180791059DE10B4D432D0C29466646FC
:10097000754302950D4645432E46029D7D1BB441AD
:1009800000950D465D4301942C0C2F040D465543F4
:10099000AE462D0C3D43029503947546049C2D04F0
:1009A000641B049406D2029C039D641C00267541BE
:1009B0000395029401AC70CC009F7D1BB44101945F
:1009C0008C050694079C890A611800950791019C83
:1009D0000599A4086143090C0D464543680BEF04D3
:1009E0000D46644665436C0B3C43049FED047D1B40
:1009F000AC4602D20025641C6841009E019D371B55
:100A000085410846584301950C46460FC50054439E
:100A1000600F28436546E4002C1B02D20025401CD1
:100A20006E41019D3F1AB5412846BD098006284305
:100A30008446A009BF064E020699A406761807430D
:100A4000079D002068410A99079019430020099BDF
:100A500000906046FF1913434041E20F64003A439F
:100A6000A4460446D71A8C41A04203D90120009025
:100A700020463A46C70F941840416246D20F22439F
:100A8000644664000494009CBE466400D71AA446E1
:100A9000044602978C417746002F01D1A04204D929
:100AA0006046401C8446029A2046C40FA64694180D
:100AB0004041049A0546D20F224364466400D31A8B
:100AC0008D417146002901D1A84202D928461A4613
:100AD000641C10430122002800D01643610200204C
:100AE000079B891904465C410223002C02DB49184C
:100AF00013466441089DCE0A2D145D194B05670508
:100B0000E10A2C050D1908993E43C9076940002BDD
:100B100008D0934006D30022761C5141002B01D10E
:100B2000760876001C4A002D43DB154241D0AA43CB
:100B30003FD030460BB0F0BD06180D464D41174C66
:100B40007642AC411AD395181C465C41134A6D425B
:100B5000A24113D3012252054C00D4420AD15C00B9
:100B6000D4420BD04B4002D592021143E2E7490038
:100B70004908DFE75940C90FC90718E000200849B4
:100B8000D8E7054801420DD10342F7D0F2E7000053
:100B90000000FF072F5300000000F07F0000E0FF7F
:100BA0000000F87F114859400143C0124140002025
:100BB000C0E70123089A9B069A4205DC03225207EC
:100BC0008918C90FC907B5E7052252078918074ACE
:100BD0001143D2125140ADE770B515461C4602468E
:100BE0000B4628462146FFF7DFFD70BDFFFFFF7F64
:100BF0001F22030C02D10F22000402D0030E03D0E7
:100C000004E00020014670470002083A030F01D1BA
:100C10000001121F830F01D18000921E002801DB0A
:100C20004000521E120551184205C01241181046CC
:100C30007047C10FC90700D04042012292071143FB
:100C4000D6E701218907D3E7F0B58B4C0F0925467C
:100C500089B0BD437BD01D092646AE43FAD00E466F
:100C60005E402740F60F3E43254071D024012142CB
:100C7000FBD0FF24AD19A4042D1B039501252D05E0
:100C8000DB02DB0AC9022B43C90A29431E01090101
:100C9000040F130F050121431701880B82039143B1
:100CA0002D098C46A90B1E438A039543B30B9A0367
:100CB00096433F09BA0B9403A74302962E467E4300
:100CC0000497B6464E19D7190C460196544305971A
:100CD0007E43371B7646BF1B3601B646BE0B361920
:100CE00000967646BC043719009C01D3641C00941E
:100CF0006400002F01D001263443029E049F7543F7
:100D000066467E430496760034196E0034190094CA
:100D1000029C019E1C196643751BAE4606946546EF
:100D20004519059C05956C43594375460891691A08
:100D30000191049E01465143A41B0491611A009C39
:100D40000791E10605D061090122114302E072E03A
:100D50006EE06109089D00272C0A2D066918049D84
:100D60007C412A0A2D066918019D6241AC0DAD0235
:100D70006D185441079A910D920255196141029ADA
:100D8000644658435443069B059A5A43121A131B50
:100D90009A0E9B015B187A41010B0005C318514163
:100DA000220A200644195A419A4200D2491C0120C5
:100DB0004002814203D315230226F64302E01423A6
:100DC0000326F6432020C51AA9401746AF40DA4053
:100DD0000A4320460399D84009147318190551187D
:100DE000039A3843D2075140AC4009D001229440C5
:100DF00006D30022401C5141002C01D14008400084
:100E00001E4A934212D3012203989206904207DBB6
:100E10000520400709181A480143C012414004E068
:100E2000032040070818C10FC907002009B0F0BD12
:100E30000020F107FAE705180C464C4111486D42B5
:100E4000A04115D394181A465A410E486442904165
:100E50000ED301204A004005824209D35A00824243
:100E600006D35940C90F084AC90700201143DDE7DE
:100E700000200649DAE700000000FF07FE07000037
:100E8000FFFFFF7F0000E0FF0000F07F0000F87F21
:100E900070B505464800440D124B0020002C0AD0C6
:100EA000634008D09A4206DA6642B24203DD120578
:100EB0004019514170BD002C08D0002B09D0C90F3A
:100EC000C907002AF6DB084A114370BDC90FC907DC
:100ED00070BD28460A03104302D00020034970BDAC
:100EE000284670BDFF0700000000F07F0000F87F7B
:100EF0000121C9050123411842001B06D3185B0ECE
:100F00000AD0C1100722D206891840075242D142A6
:100F100001D5520089187047090208D50146002AF8
:100F200003D0C10FC9070020704710467047420226
:100F300002D0002002497047072109050143F4E768
:100F40000000F87FF0B5FF252D04C609C209FF2770
:100F500004462E400137CB093E4348402A402B40EF
:100F60000746002A6BD0002B69D0AA4267D0AB425B
:100F700065D0002800DA32460125ED0529432C43CF
:100F800009022002090AD21A4B0C7F24E31A434CAF
:100F9000000A7C44E35C7D242404121914145B00D1
:100FA000A218884201D3521C00E0400049420C467E
:100FB0005C4324115C43DB016415E318040A5C43C1
:100FC000C502200D0C4644436419250A5D432303E2
:100FD000EC0C0D46654300030019EB184C42A3428C
:100FE00001D35B18401CD4052018002B07D05B00F0
:100FF000C91804D3401C002901D1400840003F21FA
:1010000089048A4209D3002A08DC1106090F04D09A
:10101000032149074018C00FC007F0BD012241005D
:10102000120689187F2252069142F6D205214907FD
:10103000C84201D59010F0BDFF20C005F0BD002FC3
:1010400000DA32461648AA4207D2AB4205D219024C
:10105000090E17D0F80FC007F0BDFF2563002D065D
:10106000AB42F9D84900A942F6D8AB4201D1A94216
:10107000F2D0A94201D1002101E061004908D00568
:101080000843F0BD1102090EFBD0FF200243D0053A
:10109000F0BD0A460146104654E700002D4C000002
:1010A0000000C07F10B501469E240002CA15A307A8
:1010B000002A02D01843002A04DBA21A002A0CDD01
:1010C000D04010BD1206120E01D140004008A21AF5
:1010D00003D4D04040420028F3DDFF22480012062E
:1010E000904201D9002010BDC817C043584010BD20
:1010F0000102C21504D00123DB071943002A0ADBD1
:101100009E239A1A02D40846D0407047FF2241001D
:101110001206914201D900207047C017C0437047A2
:101120001F22030C02D10F2200041CD0030E01D198
:101130000002083A030F01D10001121F830F01D1F1
:101140008000921E002801DB4000521ED20551187B
:10115000021251181922904004D3491C002801D1D1
:101160004908490008467047C10FC90700D04042EE
:10117000012292071143D3E701218907D0E700003C
:1011800010B5FF231B0644009C421DD84C009C4216
:101190001AD80346124A0B4307D4401A02D3EFF37E
:1011A000008010BDEFF3008010BD081A06D2EFF3E7
:1011B000008001219043C907084302E0EFF300805B
:1011C000904380F3008810BD0D231B041A4204D005
:1011D0001146002000F006F810BD00F01BF810BD0D
:1011E00000000090C80212D54803400F002804D028
:1011F000C803C043012188407047EFF3008000011D
:10120000000903210907084380F300887047002084
:101210007047000010B5024800F02BF810BD000028
:101220000000C07F754600F053F8AE4605006946E1
:101230005346C008C000854618B020B5FEF7CEFF63
:1012400060BC00274908B6460026C0C5C0C5C0C559
:10125000C0C5C0C5C0C5C0C5C0C5403D49008D465C
:10126000704710B50446C046C0462046FEF773FFDF
:1012700010BD10B50C461107090F092904D00A2921
:101280000AD008290CD104E011460820FFF7AAFF74
:1012900006E0510606D501E0510601D50120C00740
:1012A000214610BDD10607D501010909CC0849071F
:1012B000000E0006044309E0410F20024907000A1E
:1012C0000143200E00061D22D14101430846E7E7F5
:1012D00000487047F401002001491820ABBEFEE72A
:1012E000260002007047416070470122D2030029A6
:1012F00003D00168114301607047016891430160A8
:1013000070470000FEB501243F4E404D012C03D133
:101310000021304600F0C8F8022C03D101213046EC
:1013200000F0C2F8032C03D10A21304600F0BCF8CB
:10133000042C03D10B21304600F0B6F8052C03D164
:101340000C21304600F0B0F8062C03D10D213046B8
:1013500000F0AAF8072C03D10E21304600F0A4F8C3
:10136000082C03D10F21304600F09EF8304600F0E3
:10137000A1F828790028FCD000202871304600F020
:101380006BF802461020029021491420019160431D
:10139000204B81B20093FF2006230F3000F06AFC3F
:1013A000012C03D1304600F057F82881022C03D1DC
:1013B000304600F051F86881032C03D1304600F02C
:1013C0004BF8A881042C03D1304600F045F8E881A1
:1013D000052C03D1304600F03FF82882062C03D1BB
:1013E000304600F039F86882072C03D1304600F00F
:1013F00033F8A882082C03D1304600F02DF8E8829B
:10140000641C082C82DDFEBD102102401800002063
:10141000FFFF000082F8000010B5074C01212046B4
:1014200000F01DF8002806D001212046FFF75BFFE1
:1014300002490120087110BD10210240180000204F
:1014400001221203002903D0016811430160704793
:101450000168914301607047806880B2704702461E
:10146000002052680A4200D00120704710B5FFF7F3
:10147000D3FF10BD002A03D002680A430260704700
:1014800002688A430260704710B50268054B1A4033
:101490008C680B6823438C89144323430360496899
:1014A000C16010BDE0F7C8FF0268520952010A434B
:1014B000026070470168802211430160704700009C
:1014C000FFB5196881B0814273D9002018606CE0C3
:1014D00000990398455C06212846484336490A5A34
:1014E00044186088101A06B2284601F0A7FD334858
:1014F00007787842864220DBBE421EDC3048E90095
:101500000D18E8888019E88001F074FD0621695EF5
:10151000884202DC6088401C08E001F06BFD062177
:10152000695E4042884204DD6088401E6080002081
:10153000E88000206870687134E0864220DA204834
:10154000E9000D186878401CC6B26E700020687102
:101550001C4801783046FEF78DFE002922D11A483A
:101560001849007809784843864205D300206870FE
:1015700016490120087015E060887908401A10E0CB
:10158000BE420FDD0E48E900002208184270417982
:10159000491CC9B24171202904D142716088B9083F
:1015A000401860800098401CC0B2029900908842A8
:1015B0008ED305B0F0BD0000C40100203F00002024
:1015C000840100203C5B00083D5B000840000020D7
:1015D000704700000248C16B01221143C16370478C
:1015E0000003004070470000224A01239068DB039B
:1015F000D16843400B4325D001231B0443400B43D8
:1016000023D001235B0443400B432DD001239B04D3
:1016100043400B431CD00123DB0443400B4326D043
:1016200001231B0543400B4315D001235B054340B9
:101630000B4313D001239B055840084311D0FF20D2
:1016400010707047012010707047022010707047B2
:101650000320107070470420107070470520107030
:1016600070470620107070470720107070470820E0
:10167000107070470800002070477047704770472F
:10168000F8B506210446134F4C43E519395BAA8887
:101690008E1A01F0D3FC0101B14202DB4942B14292
:1016A00006DDA88838530C480178491C01700EE00B
:1016B0004010B04202DB4042B04201DD385B05E041
:1016C000A888C108401A395BC9084018A880A888B2
:1016D0003853F8BDC40100203B000020F0B54B8812
:1016E0000A88022B04D0012B06D0002B0CD012E06C
:1016F000036A134303620EE0036A93430362026CBE
:101700000B881A43026406E0036A93430362026C87
:101710000B889A430264036E00220E88032701247B
:101720009440264206D054003D46A540AB438D88E8
:10173000A5402B43521C102AF1D30366F0BD00686C
:10174000084201D0012070470020704708B5009082
:10175000012007E0CA0701D0009A10704908009ADA
:10176000521C00920029F5D108BD704770477047A0
:10177000704710B500F046FE01F0BEFC10BD000041
:10178000F0B585B0FF200090002001460246019090
:10179000D048002406C02546274628E038460621C2
:1017A0004843CD490A5A40184088101A06B2002E04
:1017B0001BDD384601F042FC00B2A64203DB2546A1
:1017C0003446009702E0AE4200DB3546C10F0918EF
:1017D0004910B14203DAC14A1178491C117086429E
:1017E00003DD0198401CC0B201907F1CFFB2BC4ECB
:1017F00030788742D2D3BB48BB4F01684068014371
:101800004BD10198B94904280BD308783246401CC3
:10181000C0B208701278921E90421BDD0020087042
:1018200015E000220A70AE49AC480B780078B04948
:101830005B1E984210DBAF4B1878401CC0B218708A
:101840000A70AD490978491E884203DD1A70AB4918
:101850000120087005B0F0BD0528A64802700CD91B
:101860000878A54A401CC0B2087012785308834219
:1018700013D20A70012038700FE00A7038780128FE
:101880000BD19F4B9C491878401CC0B21870097846
:10189000C900814201D21A703A700098FF281DD009
:1018A00001F0CCFB00B2844211DD611B801081424B
:1018B0000DDD012002900021009AFEF7CBFC854A45
:1018C00003C288480168406801430AD02EE0002026
:1018D0000146024602907F4806C030E00020029098
:1018E0002DE00098874CC00000198178FA2901D2B8
:1018F000491C8170397801297F49097801D189060D
:10190000090E8078884211D300F05CFF79480021ED
:1019100001700846337807E0009A904202D0C20076
:1019200012199170401CC0B29842F5D30098002162
:10193000C2007448101841704171C170C180002408
:10194000C1E00098A04202D1029800287ED1204632
:101950000621484360490A5A45186888101A06B299
:10196000204601F06BFB00B20390674800780190BD
:101970004042864226DB01998E4223DC59480168A9
:10198000406801435FD15F48E1000F18F888801973
:10199000F88001F02FFB0621795E884202DC68881E
:1019A000401C08E001F026FB0621795E4042884297
:1019B00004DD6888401E68800020F8800020787070
:1019C000787140E0864220DA4E48E100091804911F
:1019D0004878401CC0B248704C4907460978FEF769
:1019E00049FC00292FD149484949007809784843E2
:1019F000874206D3049900204870404901200870AE
:101A000021E069880198081A1CE0019886421ADDD5
:101A1000224601200021FEF71DFC324A0CCA10406C
:101A2000194008430FD13748E10008184179491C93
:101A3000C9B24171202906D10021417101986988FC
:101A40004008081868802246012000E039E00021A3
:101A5000FEF700FC234F0CCF10401940083F08430D
:101A600020D003988110401AB04212DD2548E100D1
:101A70000D18E878401CE87001F0FCFAE978814222
:101A800015D30022EA701046114603C7AA70083F1A
:101A90000DE01C48E1000818C178002907D0491E54
:101AA000C17004E017490020E2005118887003CF8C
:101AB000084306D11748027817480178204601F0FC
:101AC000D7FC641CE4B206480078844200D238E7B0
:101AD000C0E60000B0000020C4010020410000204A
:101AE0003E00002050000020AD000020AB00002090
:101AF000A9000020A80000203D0000204000002098
:101B0000AA000020840100203F0000203D5B000867
:101B10003C5B0008415B0008425B0008F8B50746E3
:101B20000C4615461E462A2000F00AF910213846B8
:101B300000F0E0F81021284600F0DCF82B2000F03F
:101B4000FFF81021204600F0D5F81021304600F0B3
:101B5000D1F82C2000F0F4F8F8BDFFB581B00A9D53
:101B600006460F46002409E023463246214600205F
:101B7000009500F0C3FE0498201884B2BC42F3D94B
:101B8000002409E03B46224600212046009500F053
:101B9000B5FE0398201884B2B442F3D905B0F0BD65
:101BA00010B514460B460246FFF7B8FF1021204639
:101BB00000F0A0F810BDFFB581B00D4616461F46D7
:101BC000781E83B2701E82B229460198FFF7A6FFE5
:101BD0000BE0019C05E010210A9800F08BF8641CD2
:101BE000A4B2B442F7D36D1CADB2BD42F1D305B07F
:101BF000F0BD0000FFB581B00B9E7408E30873438D
:101C00000093203AD2B203928A19521E93B202195B
:101C1000521E92B2FFF782FF002522E0102E10D054
:101C2000202E21D10398114980014018475D0024DE
:101C30000120A04038420AD01021049800F05AF840
:101C400009E003980A4900014018475DEFE71021B9
:101C50000A9800F04FF8641CE4B2082CE8D36D1C1D
:101C6000ADB200988542D9D305B0F0BD2C43000831
:101C70003C3D0008FFB583B00E9E1D46002770084E
:101C80000290002424E0281B401EC1B20A2001F06B
:101C90000DFF01460598FEF7EDFA0A21FEF7EAFA74
:101CA000002F05D1681E844202DA002914D00127D2
:101CB0000D9830310090CAB20298039960434018E1
:101CC000019680B20C9B0499FFF794FF641CE4B268
:101CD000AC42D8D307B0F0BD0D980090029803999C
:101CE00060434018019680B220220C9B0499FFF7B4
:101CF00081FFEBE770B506460F4C082917D0A10508
:101D0000204600F089FD0D4D00202871052001F0CE
:101D10008DFE3146204600F0BFFD6068C007FCD054
:101D200001226260052001F081FE2A7170BD002150
:101D3000204600F071FDE6E740100240001101402E
:101D400010B50246074C0021E170052001F06EFE3F
:101D500008211046FFF7CEFF052001F067FE0120A5
:101D6000E07010BD001101407047000010B5884CB4
:101D700020212046FFF7EAFC04212046FFF7E6FC7D
:101D8000322001F053FE1120FFF7DAFF3A20FFF76F
:101D9000D7FF08210520FFF7ADFFC520FFF7D0FFD3
:101DA00008211A20FFF7A6FF3620FFF7C9FF0821F8
:101DB0006020FFF79FFFB220FFF7C2FF0821052038
:101DC000FFF798FF08210520FFF794FF0821002066
:101DD000FFF790FF08213320FFF78CFF0821332005
:101DE000FFF788FFB720FFF7ABFF08210520FFF7BB
:101DF00081FFBB20FFF7A4FF08213F20FFF77AFFF8
:101E0000C020FFF79DFF08212C20FFF773FFC220A1
:101E1000FFF796FF08210120FFF76CFFC320FFF7B3
:101E20008FFF08210F20FFF765FFC420FFF788FF11
:101E300008212020FFF75EFFC620FFF781FF082161
:101E40000120FFF757FFD020FFF77AFF0821A420D9
:101E5000FFF750FF0821A120FFF74CFFE820FFF714
:101E60006FFF08210320FFF745FFE920FFF768FF18
:101E700008210920FFF73EFF08210920FFF73AFF5C
:101E800008210846FFF736FFE020FFF759FF082139
:101E9000D020FFF72FFF08210520FFF72BFF082197
:101EA0000920FFF727FF08210920FFF723FF08215A
:101EB0000846FFF71FFF08211420FFF71BFF08212A
:101EC0002820FFF717FF08213320FFF713FF082111
:101ED0003F20FFF70FFF08210720FFF70BFF082126
:101EE0001320FFF707FF08211420FFF703FF082145
:101EF0002820FFF7FFFE08213020FFF7FBFEE1203E
:101F0000FFF71EFF0821D020FFF7F4FE082105206F
:101F1000FFF7F0FE08210920FFF7ECFE0821092059
:101F2000FFF7E8FE08210846FFF7E4FE082103203A
:101F3000FFF7E0FE08212420FFF7DCFE0821322015
:101F4000FFF7D8FE08213220FFF7D4FE08213B20FE
:101F5000FFF7D0FE08211420FFF7CCFE0821132044
:101F6000FFF7C8FE08212820FFF7C4FE08212F2014
:101F7000FFF7C0FE2020FFF7E3FE1120FFF7E0FE91
:101F8000782001F053FD2920FFF7DAFE10BD000094
:101F9000001101407047000005498A01002803D064
:101FA00008681043086070470868904308607047ED
:101FB0000000024004490A6807231B059A430A608F
:101FC0000A6802430A60704700000240054A00297F
:101FD00003D011680143116070471168814311609B
:101FE000704700000000024001220649D205002887
:101FF00003D0086810430860704708689043086081
:10200000704700000010024004490A6807231B05BE
:102010009A430A600A6802430A607047001002404F
:10202000054A002903D01168014311607047116807
:1020300081431160704700000010024001220649F0
:10204000D205002803D0086810430860704708686C
:1020500090430860704700000020024004490A686D
:1020600007231B059A430A600A6802430A60704707
:1020700000200240054A002903D011680143116085
:1020800070471168814311607047000000200240D2
:1020900004490A6807231B059A430A600A68024339
:1020A0000A6070470030004000B50246FF2000F093
:1020B000F1F806494023002A03D0486918434861D3
:1020C00000BD48699843486100BD000000300040F1
:1020D00000B50246FF2000F0DDF806490B14002A87
:1020E00003D048691843486100BD48699843486176
:1020F00000BD00000030004000B50246FF2000F0A7
:10210000C9F806492023002A03D0486918434861CA
:1021100000BD48699843486100BD000000300040A0
:102120007047000000B50246FF2000F0B3F80649F2
:10213000CB13002A03D048691843486100BD4869A1
:102140009843486100BD00000030004000B50246E1
:10215000FF2000F09FF806490223002A03D04869B7
:102160001843486100BD48699843486100BD0000BC
:102170000030004000B50246FF2000F08BF8064911
:10218000002A04D0486901221043486100BD486913
:1021900040084000486100BD0030004030B50346B3
:1021A000FF2000F077F81B4A506903242403A04362
:1021B000204350611848802583421BD0FF2000F047
:1021C00069F850690721C901884318435061506973
:1021D00028435061506900060AD5D81FFF38FA38E5
:1021E00004D15069A043A90108435061002030BDCB
:1021F000012030BD5069A84350615069000607D4E2
:102200005069A0430121090308435061002030BDFB
:10221000012030BD003000407FFF000010B50246B5
:102220000B4C0423012A0ED0FF2000F033F8206964
:1022300098432061074988696023984388618869C9
:102240001043886110BD20691843206110BD000053
:1022500000E000E0003000400649002804D0086992
:1022600003221043086170470869800880000861F4
:102270007047000000E000E00449401E884203D897
:10228000034948610020886170470000FFFFFF009C
:1022900000E000E0402803D30249C86000207047F6
:1022A00001207047003000401FB50020694688813A
:1022B0000721090400911049019102900F4C6946D1
:1022C0002046FFF7E1F80A212046FFF7EDF801224A
:1022D00011022046FFF7CEF800212046FFF7B0F8A4
:1022E00003211D2001F080FB1D2001F071FB012165
:1022F0002046FEF7FAFF1FBD03FC0000102102403C
:10230000F0B59BB0022410A98C84CC8400250D85E7
:1023100019A93948FFF7E2F9042610A98E83CC8366
:102320000D8417A93448FFF7D9F9082010A988822D
:10233000CC820D8315A93048FFF7D0F9102010A9E1
:102340008881CC810D8213A92B48FFF7C7F9202083
:1023500010A98880CC800D8111A92748FFF7BEF90C
:10236000402769468F87CC8710A90D800FA9224886
:10237000FFF7B4F9802069468886CC860D870DA9C1
:102380001D48FFF7ABF9E00169468885CC850D86CD
:102390000BA91948FFF7A2F969468F840120C88468
:1023A0000D8509A91548FFF799F969468E83CC83F5
:1023B0000D84134E07A93046FFF790F908206946AF
:1023C0008882CC820D8305A93046FFF787F910205B
:1023D00069468881CC810D8203A93046FFF77EF9DA
:1023E000202069468880CC800D8101A93046FFF706
:1023F00075F91BB0F0BD0000001201400010014053
:102400000011014010B5FFF77BFF00F011F800F05C
:1024100010F800F083F800F083F900F03BF800F0CA
:1024200091F800F0DDF800F023F9FFF73DFF10BD53
:10243000704710B5FF20FFF72DFF0020FFF75CFE6F
:102440000020FFF797FE0120FFF780FE0120FFF735
:102450002BFE0120FFF766FE0120FFF739FE012069
:102460004002FFF79BFE0020FFF712FE0020FFF75F
:10247000A1FD0120FFF790FD0020FFF7C5FD012021
:10248000FFF7B2FD0020FFF7E9FD0120FFF7D6FDC1
:1024900010BD000070B58AB00125684605844584EA
:1024A000002484841B4E08A93046FFF717F9022147
:1024B000684601834583848306A93046FFF70EF9F9
:1024C00001211020FFF7ACFD049428040090039430
:1024D000029405940194104C6946204600F0B2F92C
:1024E0000021204600F0C6F900220121204600F01C
:1024F0009CF901224021204600F082F9012280212E
:10250000204600F07DF90121204600F06BF90AB069
:1025100070BD0000001101404010024010B5FF20C6
:10252000FFF7B8FE0020FFF779FE7D20C001FFF71E
:10253000A3FE0021481E01F057FA0120FFF78CFE90
:1025400010BD000030B585B001210846FFF73EFD03
:102550000024684644810481848103214902018268
:10256000C4811E4D02A9284600F00EFB68468480F7
:10257000C48001A9284600F0D5FA0021284600F0C1
:10258000C3FA6846048044806946284600F0E1FAB0
:1025900032220121284600F0E8FA322201212846A1
:1025A00000F0E3FA01221146284600F0C6FA0122A3
:1025B0000221284600F0C1FA00220421284600F03A
:1025C000BCFA03210F2001F00FFA0F2001F000FAEE
:1025D0000121284600F076FA05B030BD0001024026
:1025E0001FB501210220FFF71BFD00206A46D080A5
:1025F000FF21013191804021118149029181508157
:102600001A4C01A9204600F0BFFA04216A46118045
:10261000082151806946204600F084FA01212046B5
:1026200000F072FA0021204600F0A7FA01221146BC
:10263000204600F082FA01220421204600F07DFAB3
:1026400001220821204600F078FA002202212046CB
:1026500000F073FA0221132001F0C6F9132001F0F3
:10266000B7F90121204600F02DFA1FBD40110240AC
:102670001FB501210420FFF7D3FC00206A46D0805B
:10268000FF210131918040211181490291815081C6
:10269000224C01A9204600F077FA04216A461180F5
:1026A000082151806946204600F03CFA012120466D
:1026B00000F02AFA0021204600F05FFA01221146BC
:1026C000204600F03AFA01220421204600F035FAB3
:1026D00001220821204600F030FA00220221204683
:1026E00000F02BFA01222021204600F0F9F9002207
:1026F0004021204600F0F4F900221021204600F08D
:10270000EFF90221142001F06FF9142001F060F9B3
:102710000121204600F0D6F91FBD000080110240C3
:1027200070B588B001210903684601830124448300
:1027300000258583204E06A93046FEF7CFFF6103B2
:10274000684601824482858204A93046FEF7C6FFAE
:1027500001210420FFF78EFC18480190E12040027F
:1027600002900394164C01A9204601F0BFF8012203
:102770001146204601F0ADF800220421204601F068
:10278000A8F801220221204601F0A3F80121082027
:1027900001F02AF9082001F01BF90021204601F080
:1027A000C9F80121204601F0DFF80121204601F09F
:1027B000C9F808B070BD0000001201400090D003BD
:1027C0002020024010B505480549036812C90B4393
:1027D000426803602243426010BD000050000020A8
:1027E000B0000020002904D001688022114301605C
:1027F00070470168014A1140016070477FFF000087
:10280000002A03D002690A43026170470269C94382
:1028100089B20A4002617047026803231B079A438A
:10282000026002680A4302607047002A03D002690E
:102830000A43026170470269C94389B20A400261D2
:102840007047000030B50268094B1A404C680B68AD
:102850008D6823430C692C432343CC684969234387
:102860000B430121134389050B43036030BD000076
:10287000FFF022CF0268064B984202D0054B9842E7
:1028800002D103235B039A430A43026070470000AE
:102890006000024060100240C16070477047000055
:1028A00010B50F4C2078410604D5BF210840207098
:1028B00000F090FD2078010610D54006400E2070F3
:1028C00000F0C8FE074AD16090600748406B506036
:1028D000FEF78AFE01F056F800F07CFD10BD000006
:1028E000AE00002008000020600000200120024906
:1028F000C00688607047000000ED00E0F0B587B0CA
:10290000002405940025002603940294171A5A1AED
:10291000049201900091601E002F02DD01210391BD
:1029200003E0002F01D003907F420499002902DDCB
:102930000120029006E00499002903D00290049837
:10294000404204900498874201DD3C4600E0049C2C
:10295000601C06901BE000980C9A81B2019880B22E
:10296000FFF71EF9ED1904983618A54204DD2D1B5A
:102970000399019840180190A64204DD361B029984
:102980000098401800900598401C80B20590069968
:1029900005988842DFDB07B0F0BD000010B5084C99
:1029A0000121204600F0A8F8012807D10121204686
:1029B00000F086F803484188491C418010BD0000A2
:1029C000000102400000002070477047704700007F
:1029D000F8B51A4E0721304600F08EF80127BF03E4
:1029E000174C184D01280ED139462846FEF7A7FE90
:1029F000012808D141032846FEF7A1FE012802D193
:102A00002088401E20800721304600F075F80128FC
:102A10000FD139462846FEF792FE002809D1012140
:102A200049032846FEF78BFE002802D12088401E6D
:102A300020800721304600F043F8F8BD40110240E5
:102A40000000002000100140F8B51A4E0721304662
:102A500000F052F801277F03174C184D01280ED1C2
:102A600039462846FEF76BFE012808D18103284627
:102A7000FEF765FE012802D12088401C2080072136
:102A8000304600F039F801280FD139462846FEF7C4
:102A900056FE002809D1012189032846FEF74FFE82
:102AA000002802D12088401C20800721304600F0F9
:102AB00007F8F8BD8011024000000020001001401E
:102AC000C1607047002904D0016880221143016071
:102AD00070470168014A1140016070477FFF0000A4
:102AE000002A03D082690A43826170478269C94320
:102AF00089B20A408261704702460020D2680A42C9
:102B000000D0012070470000002904D00168012294
:102B10001143016070470168014A1140016070472C
:102B2000FEFF000010B54A88098803689BB23C2468
:102B3000A3430A431A43026010BD002A03D08269EE
:102B40000A43826170478269C94389B20A4082613F
:102B5000704702680F23DB029A430B8849885B03A6
:102B6000C9020B43134303607047022903D00129B4
:102B700000D1426170470261704702680123DB04A3
:102B80009A430A430260704730B50268074B1A4007
:102B90000B888C88CD8823434C882C4323431343D4
:102BA000036009898160416030BD00009DF8FFFF2E
:102BB00010B50120FFF742FA01200249C007086062
:102BC00010BD000000E100E0F0B500220F4E3146DC
:102BD0002839CD7A12E00021482353439B195C7CAD
:102BE00006E05F1820373F78874203D0491CC9B2FE
:102BF0008C42F6D88C4203D1521CD2B2AA42EAD3FC
:102C0000AA4201D00120F0BD0020F0BD60000020EC
:102C1000F0B504468DB000200A9009900890606CD1
:102C2000401C0027606427E0E0192030017806226C
:102C300008465043894A7E00135A801840886A46E5
:102C4000181A00B29053E369984201DD00236364CF
:102C5000A269904202DA002268468253084600F0D8
:102C6000EDF901466846805F64225043FDF70CFB96
:102C700069467F1C8853FFB2667CBE42D4D8606C24
:102C800000280BD000202246203260632346107CAF
:102C900044333146FEF714FC0DB0F0BD00206A4607
:102CA00008E04100515E0A9B994201DD05460A9108
:102CB000401CC0B28642F4D80021575E6818421EFC
:102CC00001D5720004E0B24201DB384605E0420063
:102CD00068461218403A3E20105E491C0246099B85
:102CE0004A43D2180992089AC9B2101808900329C9
:102CF000E4D3E06BFDF7A5FF0022594BFDF754FD2F
:102D0000074601220B91FEF7C3F80022554BFDF751
:102D100033FDFDF75FFB0A900898FEF72DFA089047
:102D20000998FEF729FA0899FEF70CF94E49089020
:102D300000F044FFFEF7B6F920640A98FEF7D8F8D1
:102D40000A9009910898FEF7D3F83A460B9BFDF7D5
:102D500008FD07460B91FF2031466930FDF78AFADE
:102D60000890FDF76EFF3A460B9BFDF76DFF099B40
:102D70000A9AFDF719FDFDF72DFB0746681E08D5D9
:102D8000FF21693148433146FDF77EFAFF30693053
:102D900005E0FF21693148433146FDF775FAFEF73A
:102DA000E3F9064608984008FEF7E6F9394600F0D0
:102DB00095FE314600F092FE06462C4F02E000F0F0
:102DC00055FF064639468E42F9DC2078012815D099
:102DD00065692846FEF7D0F9314600F0EFFE394626
:102DE000FEF7B0F87F21C90500F078FEFEF780F904
:102DF0006063A84200D84FE765634DE7FF27089856
:102E00006937381AFEF7B0F9314600F0ADFE0CD83C
:102E1000617C3846FDF72EFA791E081AFEF7A4F9F0
:102E20000646002D01D17F26F605617C3846FDF768
:102E300021FA381AFEF798F905466069FEF79CF901
:102E4000314600F0BBFE2946FEF77CF87F21C9051C
:102E500000F044FEFEF74CF960631DE7C40100205A
:102E600000005940000010400000C8420000B44378
:102E70000248C16802221143C1607047002202402B
:102E80000148806980B2704700220240044AD1683C
:102E90000F231B0300079943000C0143D1607047C7
:102EA0000022024005498022002803D0C868104350
:102EB000C8607047C8689043C860704700220240ED
:102EC00010B500F001F810BDF8B51B481B4F057890
:102ED0001B4E00F03BF800240EE02046062148433C
:102EE000395AC0194180174802781748017820469E
:102EF00000F0BEFA641CE4B230788442EDD3284678
:102F00006D1EEDB20028E4D100F05AF800F0A2F8EE
:102F1000054600F01BF8002404E0204600F04CF8C1
:102F2000641CE4B230788442F7D328466D1EEDB2BB
:102F30000028EED1F8BD00003E5B0008C40100206F
:102F40003E0000203F5B0008405B000810B500F029
:102F500001F810BD70B5164D002428784006400ECB
:102F6000287000F03FFB13480078082808D810E0CC
:102F700000F01AFDFEF72EFB641CE4B2642C02D2B2
:102F800028784006F4D52878BF210840287000F042
:102F900029FB002407E000F007FDFEF71BFB641C83
:102FA000E4B2642C02D228780006F4D570BD00008B
:102FB000AE0000203E00002010B5FEF761FB10BD02
:102FC00010B500200749064A8B7906E006214143E7
:102FD000545A89188C80401CC0B29842F6D310BD58
:102FE000C4010020380000200149C000085C70477F
:102FF000840100206420704730B50A2204460E4D3B
:10300000544362190B0000F0D6FC070507090B0EAC
:1030100010121400285D30BD907830BDD07830BDDE
:10302000FFF7E2FF30BD002030BD507830BD507951
:1030300030BD002030BD0000EC5A00080A21484392
:1030400003494018017A407A0902081880B2704793
:10305000EC5A00080A2070470148007870470000C9
:10306000400000200A214843014940180079704778
:10307000EC5A0008014840794008704738000020A9
:1030800003490A6992009208800702430A61704767
:1030900000220240044A11697F235B029943000227
:1030A000014311617047000000220240044A116987
:1030B00003231B0780079943800801431161704770
:1030C0000022024003490A69120A120202430A61FD
:1030D000704700000022024010B5064B9878002887
:1030E00004D0FFF7C5FE0120587010BD002000F08D
:1030F00039FB10BD3800002010B5FFF759FD002046
:1031000000F0A0F82F49002008702F4908702F49BF
:10311000087000F079F800F06DFA0120FFF7C2FEA8
:1031200000210846FFF768FF411C29480088FDF789
:10313000A1F8284C20800020FFF794FF2188484305
:1031400025490978C84000F047FA02210020FFF71E
:1031500053FF00F0F9FA00210846FFF74DFFFFF793
:1031600095FE06210020FFF747FFFFF789FF0321A7
:103170000020FFF741FFFFF78DFF05210020FFF73B
:103180003BFFFFF793FF01210020FFF735FFFFF71B
:1031900099FF04210020FFF72FFF002805D0002011
:1031A00000F0FCF8012000F007F9012000F0FEF922
:1031B0000A48007800F008FAFFF782FE00F010F8E5
:1031C00010BD00004000002033000020AE000020B1
:1031D00030000020B8000020AC0000205800002083
:1031E00010B500200749064A8B7906E006214143C5
:1031F000545A89184C80401CC0B29842F6D310BD76
:10320000C40100203800002030B500210B4C002202
:103210000B4DA37908E0C800401982704270C2705B
:10322000C2800271491CC9B29942F4D30021A16144
:10323000E161FF20A0722282227230BD380000209E
:1032400084010020012206491204002803D0C86826
:103250001043C8607047C8689043C860704700005A
:1032600000220240F8B5054643480E460078032880
:103270001ED3002440480029047012D03F4D287806
:1032800000280CD13F493E4A0B7806E00621414315
:1032900089188E88401C4E80C0B29842F6D32C709C
:1032A00001E0FFF79DFFFFF7AFFF37480470F8BD5F
:1032B000364C2078401CC0B22070A84204D1FFF7E1
:1032C0007FFE33480021017030480078A842EED9D3
:1032D0000024304F28E020460621484328490A5A56
:1032E00040188088101A00B2002E12D023490978A5
:1032F0000029397807D0CA00824210DA4942C90051
:10330000814217DC0BE08A00824208DA49428900D8
:10331000F6E73978884202DD494288420FDB2046D1
:10332000FFF74AFE641CE4B2164800788442D2D308
:10333000002E04D013480078844205D008E01148DC
:1033400000784008A04203D211480178491C01705E
:103350000E48E90002789142A9D8002404700E4872
:10336000AA00047004480178491C017008490978D2
:103370008A429CD8047094E7340000203200002078
:10338000C40100203E00002040000020BA000020C0
:10339000420000203F000020AD000020054920220F
:1033A000002803D0C8681043C8607047C8689043BD
:1033B000C86070470022024005494022002803D01F
:1033C000C8681043C8607047C8689043C8607047B9
:1033D0000022024010B500F005F910BD70B50024C0
:1033E0001D4D00266E72EE7007E02046FFF7ECFBE5
:1033F0002046FEF745F9641CE4B2A8798442F4D370
:10340000A879032805D9E878022804D8FEF7B8F986
:1034100001E0FEF7B5F9E87800280AD02879401CC9
:10342000C0B2287169798900814203D201202872D3
:1034300000E02E710024084E283606E04820604344
:103440008019FFF7E5FB641CE4B2E87A8442F5D307
:10345000E969A86970BD0000380000200149012019
:10346000087070474000002000487047B80B00000B
:10347000F7B50E460746002182B00846FFF7BCFDAF
:10348000411C1D480088FCF7F5FE05463846FFF74D
:10349000ABFD0446284670430A21FCF7EBFE0646C6
:1034A0003846FFF7DFFD314641430620134A784393
:1034B000801800904088FE00814204DD022C18D361
:1034C0000F48A41E11E004980A216843FCF7D2FEBD
:1034D00005463846FFF7C6FD4543009840888542BB
:1034E00007DAFC2C05D80648A41C845505490120A0
:1034F000087005B0F0BD000030000020C4010020BD
:103500008401002040000020F0B500200021FF24AD
:10351000E4030025244A01231E468640264202D0A9
:103520005054491CC9B2401CC0B22028F4D300201A
:103530001A4682402A4207D002461B4C203262546F
:10354000491CC9B2082903D2401CC0B22028EFD3BD
:10355000002415482038C07A86461FE00022204605
:1035600048235843104B0833C51812E00020AB180D
:103570001E462036B44608E00B4E5F78365CB742F4
:1035800001D166463070401CC0B28842F4D3521C50
:10359000D2B2687C9042E9D8641CE4B27445DDD3B1
:1035A000014820388171F0BD5800002005491022E3
:1035B000002803D0C8681043C8607047C8689043AB
:1035C000C86070470022024001218140014801602B
:1035D0007047000000220240014980B2C861704774
:1035E000002202400248C16801221143C1607047B5
:1035F0000022024070B5144C0120E0720520607179
:103600004B20E071FFF780FF00201049104DA37997
:1036100007E00A22424352189279C600AA55401C7C
:10362000C0B29842F5D30021A181E1810020064D6E
:10363000E37A283505E04822424352199163401C41
:10364000C0B29842F7D370BD38000020EC5A000891
:1036500084010020FEB5002425463A480078002861
:1036600007D1FFF7F9FC002807D000210220FFF75F
:10367000F9FD2046294603B0F0BDFFF7AFFE064630
:103680000F46002000902F488079019017E001201C
:103690000021009AFCF7DEFD3040394008430AD093
:1036A0002849009820310A5C01200021FCF7D2FD56
:1036B00004430D4307E00098401CC0B200900199FC
:1036C00000988842E3D32046284304D01D488189CE
:1036D000491C818102E01B4900208881FFF7C4FE5C
:1036E000184EB189884203D8FFF7B8FE0020B08198
:1036F000002722E0482039464143124828300E185E
:10370000706B00280CD0314620314A7C904203D1A6
:10371000B06B401CB06305E048740020B06301E06A
:103720000020B063FFF7A0FEB16B884203D8FFF71B
:1037300095FE0020B0637F1CFFB20248C07A87422A
:10374000D8D396E738000020044A11690F231B06DE
:1037500000079943000901431161704700220240AC
:103760007047704770B506460024FFF781FBFFF7EE
:1037700087FB2E4D2978062251432D4A5052287836
:10378000401C287000222B4980232B48002E07D094
:103790002E780078864212D32A70087818430CE0FD
:1037A00000782E780828F5D98642F5D22A78400884
:1037B000904204D1087840221043087000E00124B0
:1037C0002878FFF74FFC1D4909884843FFF704FF9D
:1037D00002212878FFF710FCFFF7B6FF00212878B8
:1037E000FFF70AFCFFF752FB06212878FFF704FCDD
:1037F000FFF746FC03212878FFF7FEFBFFF74AFCA2
:1038000005212878FFF7F8FBFFF750FC0121287805
:10381000FFF7F2FBFFF756FC09482978405CFFF7F9
:10382000D3FE002C01D0FFF7DDFE70BD3300002079
:10383000C4010020AE0000203E000020B80000209F
:10384000580000207047000010B500F007F8032171
:10385000014800F035F810BD2020024010B5154C8D
:103860000121204600F02EF8012811D1204600F059
:1038700077F8C0B2104A002411780123002908D03B
:1038800001290BD0022903D1FE2801D114705371F4
:1038900010BDFF28FCD11370547010BD074B517838
:1038A0005854491CC8B250700428F6D30220107036
:1038B00010BD00002020024018000020BC000020A5
:1038C000416070470246002052680A4200D0012041
:1038D0007047002A03D002690A43026170470269F7
:1038E000C94389B20A4002617047000070B50446BE
:1038F0002068C008C0008A680243226088681025DA
:1039000000280ED048680A6801461046FCF7B2FC51
:103910000749884203D92168294321600009A06032
:1039200070BD2068A843206020682843206070BDD7
:10393000FFFF0000026803235B039A430A4302600F
:1039400070470000002904D0016840221143016043
:1039500070470168014A114001607047BFFF0000D5
:10396000C068C005C00D7047002904D001688022DE
:103970001143016070470168014A114001607047BE
:103980007FFF000000B507490878FF2806D04A7875
:10399000002A02D101224A70887000BD00204870C0
:1039A00000BD0000080000207D20C000401E000473
:1039B000000CFBD1704730B47446641E2578641C3B
:1039C000AB4200D21D46635D5B00E31830BC184774
:1039D000002805DBC106C90E0120884001490860A6
:1039E0007047000000E100E08307FF22DB0E9A40F1
:1039F0008907090E9940002808DB830809489B00C5
:103A00001818036893430B43036070470007000FC7
:103A10000838830804489B001818C36993430B4374
:103A2000C361704700E400E000ED00E0401E411C6F
:103A3000FCD1704710B50C4C40212046FDF77FFEAD
:103A400000280FD11420FFF7F1FF40212046FDF799
:103A500076FE0028F9D01420FFF7E8FF0348C1885C
:103A6000491CC18010BD000000100140180000205A
:103A700008B5FDF77EFE00F023F80020FF23413358
:103A8000F02201460090FEF796F8074800900F23B9
:103A90001422FF21C820FEF760F8FDF733FCFEF783
:103AA000FFFEFFF7C7FFF8E7BD0300000346012054
:103AB00000E058430A46491EC9B2002AF9D17047AE
:103AC00008B5FEF753F90020FF2201210090F023F2
:103AD00041320846FEF76FF808BD000070B50125B9
:103AE0000400ED074C4020D4441A01D2001B0919F0
:103AF000C60D4B00F2B2FF2A29D01B0E2CD00002BB
:103B00000C02D31A2C43DC402843051910D2280A92
:103B100002D3401C6D0611D0761EF6058019FF2ACF
:103B200000DA70BDC00DC00570BD694000F0A4F89A
:103B300001200543C541521C761CE8E764089C40FF
:103B4000C90161408900E7D10124A043E4E71B0ECD
:103B5000440200D0034870BD002AFCD1C00FC0074A
:103B600070BD00BF0000C07F01230200DB050A43D7
:103B70000DD4DA4203D49A4207D488427047D8421F
:103B800014D4D94212D48842704780427047DA4236
:103B900003D59A42F9D5814270475B004200DA4270
:103BA00004D24A00DA4201D28142704710B5024A7B
:103BB000FDF7E6FA10BD00BF0900160470B542001B
:103BC00064414B005C41120E39D01B0E38D0FF2AE5
:103BD0003CD0FF2B3AD040024902400A490A060075
:103BE00045184E43000A090AD2184843ED017F3AAE
:103BF0000104731A4019190C4318990F04D00121BC
:103C00005B0849075B1A521CD80904D3401CF50312
:103C100001D19D0607D0FF2A08D2D50506D0E407BA
:103C20002043401970BD0125A843F4E7002A01DCB8
:103C3000E00770BD2402FF202043C00570BD1B0EAD
:103C4000FF2A03D0FF2B01D0E00770BDFF264500FF
:103C50003606B54206D84D00B54203D8D218FF2A21
:103C600000D0E7E7004870BD0000C07F70B50125B7
:103C70000400ED074C4022D4441A02D26C40001BD1
:103C80000919C60D4B00F2B2FF2A4BD01B0E50D0C3
:103C900000020C02D31A2C43DC40A843051B05D5B7
:103CA000AD0019D36D08761E521E37D0F605280ACE
:103CB00001D2801970BD70416D0603D070BD69409E
:103CC000FFF712FF9C4009026140490001D0401EED
:103CD00070BD0124A04370BD6D081DD001202B0CC8
:103CE00001D12D0410302B0E01D12D0208302B0FE5
:103CF00001D12D01001DAB0F01D1AD00801CEB0FD8
:103D000001D16D00401C6D00361A121A680AF505C3
:103D10004019012A02DB70BD002070BDC036300A98
:103D2000C00770BD1B0E440201D1FF2B00D1024819
:103D300070BD002AF0D070BD0000C07F0000000000
:103D4000000000000000000000000000000000086B
:103D500008080808080800001818000000486C242B
:103D6000120000000000000000000000000000241D
:103D700024247F1212127F12121200000000081C6D
:103D80002A2A0A0C1828282A2A1C080800000022BF
:103D9000251515152A585454542200000000000C13
:103DA0001212120A76252911916E000000060604EF
:103DB0000300000000000000000000000040201090
:103DC0001008080808080810102040000002040825
:103DD0000810101010101008080402000000000065
:103DE00008086B1C1C6B08080000000000000000A5
:103DF000080808087F080808080000000000000004
:103E0000000000000000000006060403000000009F
:103E100000000000FE0000000000000000000000A4
:103E200000000000000000000606000000008040C6
:103E300040202010100808040402020000000018AE
:103E4000244242424242424224180000000000083C
:103E50000E08080808080808083E00000000003C9A
:103E60004242422020100804427E00000000003C34
:103E70004242201820404042221C00000000002046
:103E80003028242422227E20207800000000007E9A
:103E90000202021A26404042221C000000000038A4
:103EA0002402021A26424242241800000000007E2A
:103EB0002222101008080808080800000000003C32
:103EC0004242422418244242423C000000000018B2
:103ED0002442424264584040241C0000000000007C
:103EE0000000181800000000181800000000000072
:103EF0000000000800000000000808040000004066
:103F000020100804020408102040000000000000F7
:103F100000007F0000007F000000000000000002A1
:103F20000408102040201008040200000000003C9B
:103F30004242464020101000181800000000001CEB
:103F4000225A555555552D42221C000000000008EC
:103F500008181414243C224242E700000000001F0D
:103F60002222221E22424242221F00000000007C28
:103F70004242010101010142221C00000000001F19
:103F80002242424242424242221F00000000003FC1
:103F90004212121E12120242423F00000000003F75
:103FA0004212121E12120202020700000000003C20
:103FB0002222010101712122221C0000000000E7E1
:103FC000424242427E42424242E700000000003E3E
:103FD0000808080808080808083E00000000007CDF
:103FE00010101010101010101010110F000000779A
:103FF00022120A0E0A121222227700000000000785
:104000000202020202020202427F00000000007768
:10401000363636362A2A2A2A2A6B0000000000E3A8
:1040200046464A4A52525262624700000000001C53
:104030002241414141414141221C00000000003F1A
:10404000424242423E020202020700000000001CFF
:104050002241414141414D53321C60000000003F6C
:104060004242423E1212222242C700000000007C5F
:104070004242020418204042423E00000000007FFD
:104080004908080808080808081C0000000000E7A4
:104090004242424242424242423C0000000000E7AB
:1040A0004242222424141418080800000000006B67
:1040B000494949495555362222220000000000E7AF
:1040C000422424181818242442E700000000007736
:1040D0002222141408080808081C00000000007EB2
:1040E0002120101008040442423F00000078080814
:1040F00008080808080808080808780000000202F4
:10410000040408080810102020204040001E101051
:10411000101010101010101010101E000038440065
:10412000000000000000000000000000000000008F
:104130000000000000000000000000FF0006080072
:10414000000000000000000000000000000000006F
:104150000000003C4278444242FC000000000003A2
:104160000202021A26424242261A00000000000003
:1041700000000038440202024438000000000060E1
:10418000404040784442424264D8000000000000B1
:104190000000003C427E0202423C0000000000F0B1
:1041A0008808087E08080808083E00000000000093
:1041B0000000007C22221C023C42423C0000000322
:1041C0000202023A4642424242E700000000000C6E
:1041D0000C00000E08080808083E0000000000302F
:1041E00030000038202020202020221E0000000364
:1041F00002020272120A1612227700000000000E5C
:104200000808080808080808083E00000000000028
:104210000000007F9292929292B70000000000008E
:104220000000003B4642424242E70000000000001E
:104230000000003C42424242423C000000000000BC
:104240000000001B26424242221E0207000000001E
:104250000000007844424242447840E00000000000
:10426000000000774C040404041F0000000000005C
:104270000000007C42023C40423E00000000000082
:104280000008083E08080808083000000000000088
:10429000000000634242424262DC00000000000075
:1042A000000000E742242414080800000000000079
:1042B000000000EB49495555222200000000000093
:1042C0000000007624181818246E0000000000007A
:1042D000000000E74224241418080807000000002A
:1042E0000000007E22100808447E000000C020204C
:1042F00020202010202020202020C000101010108E
:1043000010101010101010101010101000060808D7
:104310000808081008080808080806000C32C2003F
:10432000000000000000000000000000000000008D
:10433000000000000000000000000000000000007D
:10434000000000000000000000000000000000006D
:10435000000000000000000000000000000000005D
:10436000000000000000000000000000000000004D
:10437000000000000000C001C001C001C001C00178
:10438000C001C001800080008000800080008000AB
:10439000800000000000000000008001C003C00396
:1043A000800100000000000000000000000000008C
:1043B0000000E01CE01CF01E700E38071803080116
:1043C0008400000000000000000000000000000069
:1043D00000000000000000000000000000000000DD
:1043E00000000000000000000000000000000000CD
:1043F00000000000000000002010201020102010FD
:104400002010FE7FFE7F100810081008100810080A
:1044100010081008FE7FFE7F080408040804080442
:104420000804000000000000000000000000000080
:104430000000000000010001C007601910311831B0
:104440001839183938017001E001C0038007000FE6
:10445000001D003900311C311C310C310C11180DBC
:10446000E007000100010001000000000000000062
:1044700000000000000000001C1036186308630CE8
:1044800063046304630263026301361D9C37802268
:1044900080634063406320632063306310221836DA
:1044A000081C0000000000000000000000000000E8
:1044B0000000000000000000F00098018C018C0159
:1044C0008C018C018C00CC007800183E1C0836084A
:1044D000320863046304C304C303834306438E2684
:1044E000781C000000000000000000000000000038
:1044F00000001C003C003C003000300010000C00AC
:1045000006000000000000000000000000000000A5
:10451000000000000000000000000000000000009B
:10452000000000000000000000000000000000008B
:1045300000000040002000100008000C00040006ED
:1045400000030003000380018001800180018001DD
:1045500080018001800100030003000300060006C3
:10456000000C0008001000200040000000000000C7
:10457000000002000400080010003000200060006D
:10458000C000C000C0008001800180018001800166
:10459000800180018001C000C000C0006000600098
:1045A00030001000080004000200000000000000BD
:1045B0000000000000000000000000000001800377
:1045C000800300011C713C79783DC0070001C007E1
:1045D000783D3C791C71000180038003800100005C
:1045E00000000000000000000000000000000000CB
:1045F00000000000000000000000000000000001BA
:10460000000100010001000100010001FC7F000128
:104610000001000100010001000100010000000094
:10462000000000000000000000000000000000008A
:10463000000000000000000000000000000000007A
:10464000000000000000000000000000000000006A
:104650000000000000000000000000001C003C0002
:104660003C003000300010000C000600000000008C
:10467000000000000000000000000000000000003A
:10468000000000000000000000000000FE7F0000AD
:10469000000000000000000000000000000000001A
:1046A000000000000000000000000000000000000A
:1046B00000000000000000000000000000000000FA
:1046C00000000000000000000000000000000000EA
:1046D0000000000000000000000018003C003C004A
:1046E00018000000000000000000000000000000B2
:1046F000000000400060002000300010001800089A
:10470000000C00040006000200030001800180008C
:10471000C0004000600020003000100018000800B9
:104720000C00040006000200000000000000000071
:104730000000000000000000C007600C30181830B6
:10474000183018200C600C600C600C600C600C6061
:104750000C600C600C601820183018303018600C99
:10476000C007000000000000000000000000000082
:10477000000000000000000000018001F80180013D
:104780008001800180018001800180018001800121
:104790008001800180018001800180018001C003CF
:1047A000F81F0000000000000000000000000000F2
:1047B0000000000000000000E007101C0818043092
:1047C00004300C300C3000300018000800040002E7
:1047D0000001800040002020102008200430FC1F31
:1047E000FC1F0000000000000000000000000000AE
:1047F0000000000000000000E003180E0C0C0C1874
:104800000C180C180018000C0006C003000E00184D
:104810000010003000300C300C300C100C18180C4C
:10482000E0030000000000000000000000000000A5
:104830000000000000000000000C000E000E000F41
:10484000800E800E400E600E200E100E100E080E10
:10485000040E040EFE7F000E000E000E000E000E71
:10486000000EC07F000000000000000000000000FB
:104870000000000000000000F03FF03F10001000BA
:10488000100008000800C807280C1818081000308D
:104890000030003000300C300C3004180418080CC4
:1048A000F003000000000000000000000000000015
:1048B0000000000000000000800FC0102030103009
:1048C0001800180008000C008C0F6C183C301C609D
:1048D0000C600C600C600C601860182030306018A0
:1048E000C007000000000000000000000000000001
:1048F0000000000000000000F83FF83F1C100C080A
:104900000408040400040002000200010001000188
:10491000800080008000C000C000C000C000C00057
:10492000C0000000000000000000000000000000C7
:104930000000000000000000E007300C18180C30E8
:104940000C300C301C3038187008E007B007180E17
:104950000C1C063806300630063006300C18180CD1
:10496000E003000000000000000000000000000064
:104970000000000000000000E00318040C080C1800
:104980000610063006300630063006380C3C183665
:10499000F03100300018001800180C0C0C060C0345
:1049A000F001000000000000000000000000000016
:1049B00000000000000000000000000000000000F7
:1049C0000000000000008001C003C003800100005F
:1049D000000000000000000000008001C003C003D0
:1049E0008001000000000000000000000000000046
:1049F00000000000000000000000000000000000B7
:104A0000000000000000C000C00000000000000026
:104A10000000000000000000000000000000C000D6
:104A2000C000800080004000400000000000000046
:104A30000000000000000020001000080004000634
:104A400000038001C0006000300018000C00180056
:104A500030006000C0008001000300060004000870
:104A60000010002000000000000000000000000016
:104A70000000000000000000000000000000000036
:104A8000000000000000FE7F0000000000000000A9
:104A90000000FE7F00000000000000000000000099
:104AA0000000000000000000000000000000000006
:104AB000000000000000040008001000200060005A
:104AC000C000800100030006000C00180030001830
:104AD000000C000600038001C000600020001000F0
:104AE00008000400000000000000000000000000BA
:104AF000000000000000C0073018083008600C609B
:104B00001C601C601C600030001C0006000180005E
:104B1000800080008000000000008001C003C0030E
:104B20008001000000000000000000000000000004
:104B30000000000000000000C007601810301820BE
:104B40000C2F8C4D864CC64CC64C664C6644664455
:104B5000662666266615CC1C0C40082018303018D6
:104B6000C00700000000000000000000000000007E
:104B70000000000000000001C001C001C0014001B0
:104B800060032003200320033006100610061006E1
:104B9000F80F080C080C080C0C0C04180418061864
:104BA0001F7C00000000000000000000000000006A
:104BB0000000000000000000FE07181C1838183024
:104BC0001830183018301818180CF8071818183042
:104BD00018201860186018601860186018301818CD
:104BE000FE0F0000000000000000000000000000B8
:104BF0000000000000000000C027603810301820BE
:104C00000C400C40040006000600060006000600EA
:104C10000600060006000C400C400C20183030182E
:104C2000C0070000000000000000000000000000BD
:104C30000000000000000000FE03180E18181830D5
:104C40001830183018601860186018601860186004
:104C50001860186018601830183018101818180EDE
:104C6000FE03000000000000000000000000000043
:104C70000000000000000000FE3F183018201860FF
:104C80001840180018081808180CF80F180C180805
:104C9000180818001800180018401840182018307C
:104CA000FE3F0000000000000000000000000000C7
:104CB0000000000000000000FE7F1870184018C0BF
:104CC00018801800181018101818F81F1818181045
:104CD0001810180018001800180018001800180004
:104CE0007E00000000000000000000000000000046
:104CF0000000000000000000C013701C101018100D
:104D00000C200C2004000600060006000600060029
:104D100006FC063006300C300C30183018303008E5
:104D2000C0070000000000000000000000000000BC
:104D300000000000000000003F7E0C180C180C184A
:104D40000C180C180C180C180C180C18FC1F0C184C
:104D50000C180C180C180C180C180C180C180C1833
:104D60003F7E000000000000000000000000000086
:104D70000000000000000000F81F80018001800199
:104D8000800180018001800180018001800180011B
:104D9000800180018001800180018001800180010B
:104DA000F81F0000000000000000000000000000EC
:104DB0000000000000000000E07F00060006000682
:104DC00000060006000600060006000600060006B3
:104DD00000060006000600060006000600060006A3
:104DE000000600060E060E038E01FC000000000007
:104DF00000000000000000007E7C1818180818044D
:104E000018061802180198019801D801B803380350
:104E100018071806180E180C181C18181830183017
:104E20007EFC000000000000000000000000000008
:104E300000000000000000007E00180018001800AC
:104E400018001800180018001800180018001800A2
:104E500018001800180018001840184018201830C2
:104E6000FE3F000000000000000000000000000005
:104E700000000000000000001FF81C381C381C381F
:104E80001C3C343434343434343674326432643256
:104E900064326431C431C431C431C430C43084306C
:104EA0009FFC000000000000000000000000000067
:104EB00000000000000000001F7C1C103C1034109B
:104EC000341074106410E410C410C41184118413DD
:104ED000041304170416041E041C041C041C0418E8
:104EE0001F1800000000000000000000000000008B
:104EF0000000000000000000C003300C181808106B
:104F00000C300C30066006600660066006600660C5
:104F10000660066006600C200C3008101818300C73
:104F2000C0030000000000000000000000000000BE
:104F30000000000000000000FE0F18181830186074
:104F4000186018601860186018301818F80F1800EA
:104F50001800180018001800180018001800180091
:104F60007E000000000000000000000000000000C3
:104F70000000000000000000C003300C18180C10E6
:104F80000C300C2006600660066006600660066055
:104F9000066006600660E4612C331C321816300E81
:104FA000C007004C007C003800000000000000003A
:104FB0000000000000000000FE07181C1838183020
:104FC0001830183018301818180CF8079803180300
:104FD000180718061806180E180C180C181C1818A4
:104FE0007E780000000000000000000000000000CB
:104FF0000000000000000000E027303818300C20CE
:105000000C200C000C0018007800E003800F001E3C
:1050100000380070006004600460086018303818C0
:10502000C80F0000000000000000000000000000A9
:105030000000000000000000FC3F8C2184618241E0
:105040008241800180018001800180018001800116
:105050008001800180018001800180018001800148
:10506000E007000000000000000000000000000059
:1050700000000000000000003F7C0C100C100C1021
:105080000C100C100C100C100C100C100C100C1040
:105090000C100C100C100C100C100C10080838041C
:1050A000E00300000000000000000000000000001D
:1050B00000000000000000003EF818201820182012
:1050C0003010301030103010600860086008E00CBC
:1050D000C004C004C0048003800380038003000177
:1050E00000010000000000000000000000000000BF
:1050F0000000000000000000DFF3866186218621A9
:105100008C210C218C238C138C138C134C13581270
:105110005816580E380E380E380E300C1004100485
:10512000100400000000000000000000000000006B
:1051300000000000000000007E3E1808380830041F
:10514000300470026002E001C001C00180018003F0
:105150004003400720062006100C100C0818081801
:105160003E7C000000000000000000000000000085
:1051700000000000000000007E7C1C1018101808C1
:105180003008300C700460046002C002C002C0012C
:105190008001800180018001800180018001800107
:1051A000E007000000000000000000000000000018
:1051B0000000000000000000F83F18180818040C58
:1051C000040E00060007000380038001C001C00038
:1051D000E000600070003000382018201C100C180F
:1051E000FE1F0000000000000000000000000000A2
:1051F0000000C03F40004000400040004000400030
:10520000400040004000400040004000400040009E
:10521000400040004000400040004000400040008E
:10522000400040004000C03F0000000000000000BF
:1052300000000000000008001800180010003000F6
:105240002000600060004000C000800080018001FC
:10525000000100030002000600060004000C000824
:1052600000180018001000300020000000000000AE
:105270000000FC0300020002000200020002000223
:10528000000200020002000200020002000200020E
:1052900000020002000200020002000200020002FE
:1052A000000200020002FC030000000000000000F9
:1052B00000008007C0062008101000000000000059
:1052C00000000000000000000000000000000000DE
:1052D00000000000000000000000000000000000CE
:1052E00000000000000000000000000000000000BE
:1052F00000000000000000000000000000000000AE
:10530000000000000000000000000000000000009D
:10531000000000000000000000000000000000008D
:1053200000000000000000000000FFFF000000007F
:1053300000007800C0000001000000000000000034
:10534000000000000000000000000000000000005D
:10535000000000000000000000000000000000004D
:10536000000000000000000000000000000000003D
:10537000000000000000000000000000000000002D
:10538000000000000000F00318060C0C0C0C000CD0
:10539000800F700C1C0C0C0C060C060C064C0C4FF1
:1053A000F8380000000000000000000000000000CD
:1053B00000000000000010001E0018001800180077
:1053C000180018001800180FD81838303860186006
:1053D0001860186018601860186018203830781845
:1053E000C8070000000000000000000000000000EE
:1053F00000000000000000000000000000000000AD
:10540000000000000000C007700C181818180C18D5
:105410000C000C000C000C000C2018201810300898
:10542000C0070000000000000000000000000000B5
:105430000000000000000010001E001800180018F6
:10544000001800180018E01B301C181818180C1849
:105450000C180C180C180C180C180818181C307A9A
:10546000E009000000000000000000000000000053
:10547000000000000000000000000000000000002C
:10548000000000000000C007300C181808100C3095
:105490000C30FC3F0C000C000C0018201810701889
:1054A000C007000000000000000000000000000035
:1054B0000000000000000000003E80C380C0C0C0AB
:1054C000C000C000C000FC1FC000C000C000C00081
:1054D000C000C000C000C000C000C000C000C000CC
:1054E000F80F0000000000000000000000000000B5
:1054F00000000000000000000000000000000000AC
:10550000000000000000C077306C10181818181840
:1055100018181018300CF00718001800F00FF03FA2
:1055200008700C600C600C603838E00F0000000060
:1055300000000000000010001E00180018001800F5
:10554000180018001800980FD81838301830183084
:10555000183018301830183018301830183018300B
:105560007EFC0000000000000000000000000000C1
:1055700000000000000000008003800380030000A2
:10558000000000000001F80180018001800180011D
:105590008001800180018001800180018001800103
:1055A000F81F0000000000000000000000000000E4
:1055B0000000000000000000003800380038000043
:1055C000000000000010801F0018001800180018CC
:1055D000001800180018001800180018001800180B
:1055E000001800180018180C1806F003000000003E
:1055F00000000000000010001E0018001800180035
:10560000180018001800183E180C18061803180186
:105610009801D801380318071806180C181C181818
:105620007E7C000000000000000000000000000080
:105630000000000000000001F801800180018001ED
:105640008001800180018001800180018001800152
:105650008001800180018001800180018001800142
:10566000F81F000000000000000000000000000023
:10567000000000000000000000000000000000002A
:10568000000000000800EE1C9C338C318C318C3102
:105690008C318C318C318C318C318C318C318C3122
:1056A000DE7B0000000000000000000000000000A1
:1056B00000000000000000000000000000000000EA
:1056C0000000000010001E0FD818383018301830B5
:1056D000183018301830183018301830183018308A
:1056E0007EFC000000000000000000000000000040
:1056F00000000000000000000000000000000000AA
:10570000000000000000C007701C103018300C6052
:105710000C600C600C600C600C6018301830301895
:10572000C0070000000000000000000000000000B2
:105730000000000000000000000000000000000069
:105740000000000010009E0F581838301820186014
:1057500018601860186018601860183038307818B1
:10576000980718001800180018007E0000000000BC
:105770000000000000000000000000000000000029
:10578000000000000000C023303C183818300C30F6
:105790000C300C300C300C300C3008301838303CE9
:1057A000E033003000300030003000FC000000002A
:1057B00000000000000000000000000000000000E9
:1057C0000000000060007E3C60666061E000E00078
:1057D00060006000600060006000600060006000C9
:1057E000FE070000000000000000000000000000B4
:1057F00000000000000000000000000000000000A9
:10580000000000000000E027303818301820180091
:105810007000E003800F001C043004300C301C18B2
:10582000EC0F00000000000000000000000000007D
:105830000000000000000000000000008000800068
:105840008000C000E000FC1FC000C000C000C0001D
:10585000C000C000C000C000C000C020C020801137
:10586000000F000000000000000000000000000029
:105870000000000000000000000000000000000028
:105880000000000010201E3C18301830183018306E
:10589000183018301830183018301830183830F4E4
:1058A000E013000000000000000000000000000005
:1058B00000000000000000000000000000000000E8
:1058C0000000000000007E3C18181808380830045A
:1058D0003004700260026002E001C001C001C0003B
:1058E0008000000000000000000000000000000038
:1058F00000000000000000000000000000000000A8
:10590000000000000000DFF78E630C238C238C2343
:105910009813981358165816700E700E700E2004B7
:105920002004000000000000000000000000000053
:105930000000000000000000000000000000000067
:10594000000000000000FC3E70087004E004C0028B
:10595000C0018003800340076006200C100C18185B
:105960003E7E00000000000000000000000000007B
:105970000000000000000000000000000000000027
:105980000000000000007E7C18181808300830085D
:10599000300460046004C002C002C00280018001C3
:1059A00080018000800080004C003C00000000006E
:1059B00000000000000000000000000000000000E7
:1059C000000000000000FC1F0C0C040E0406000385
:1059D00080038001C000E0007020302038301C18A7
:1059E000FC1F00000000000000000000000000009C
:1059F000000000300008000400040004000400045B
:105A000000040004000400040004000280010002FD
:105A10000004000400040004000400040004000466
:105A20000004000400040008003000000001000130
:105A3000000100010001000100010001000100015E
:105A4000000100010001000100010001000100014E
:105A5000000100010001000100010001000100013E
:105A60000001000100010001000100010000000030
:105A700000000C001000200020002000200020006A
:105A80002000200020002000200040008001400075
:105A90002000200020002000200020002000200006
:105AA00020002000200010000C0000000000380042
:105AB000C400864002610022001C000000000000BB
:105AC00000000000000000000000000000000000D6
:105AD00000000000000000000000000000000000C6
