:020000040800F2
:100000005830002049010008AD010008AF01000888
:10001000B1010008B3010008B501000800000000AC
:10002000000000000000000000000000B701000810
:10003000B901000800000000BB010008592B0008AE
:10004000C1190008C5190008C7190008C31900081C
:10005000DD23000800000000BF010008013B00088C
:10006000053B00081D3A00081F3A0008AD150008BE
:10007000211600082316000825160008592C000830
:10008000852C0008872C0008892C00088D2C00087E
:10009000052D000819220008ED1F000800000000CF
:1000A0000000000000000000000000000000000050
:1000B000CD1400085F130008E11400089533000810
:1000C00000F002F800F030F80CA030C8083824180E
:1000D0002D18A246671EAB4654465D46AC4201D180
:1000E00000F022F87E460F3E0FCCB6460126334282
:1000F00000D0FB1AA246AB463343184734670000D2
:10010000546700000023002400250026103A01D384
:1001100078C1FBD8520700D330C100D50B607047BF
:100120001FB51FBD10B510BD01F06EF81146FFF7E9
:10013000F7FF03F0FBFD01F086F803B4FFF7F2FFD1
:1001400003BC01F0BBF8000020480168204A1143BD
:10015000016020482049016020481F490160204873
:100160001D4901601F481C490160184801681E4A6A
:10017000114001601D481E4901601E481E49016072
:100180001E481F4901601F481F4901601B481F4945
:1001900001601F481F4901601F48204901601C4839
:1001A0001A4901601E4880471E480047FEE7FEE7E7
:1001B000FEE7FEE7FEE7FEE7FEE7FEE7FEE7FEE717
:1001C00019481A491A4A1B4B70470000003000407A
:1001D000010000003C08014000015FA07C080140D4
:1001E000BC080140FC080140FEFFFFFF103000404A
:1001F00010F05FA0DC03004001F05FA0001002409F
:10020000200080005C10024080005FA00000000021
:1002100000200240400080003C210240000F5FA00F
:10022000A92B0008C1000008582A002058300020DF
:10023000582C0020582C002010B5202A04DB014641
:10024000203A9140002010BD914020239C1A034683
:10025000E3401943904010BD002203098B422CD388
:10026000030A8B4211D300239C464EE003460B4306
:100270003CD4002243088B4231D303098B421CD368
:10028000030A8B4201D394463FE0C3098B4201D35A
:10029000CB01C01A524183098B4201D38B01C01A92
:1002A000524143098B4201D34B01C01A5241030909
:1002B0008B4201D30B01C01A5241C3088B4201D3B8
:1002C000CB00C01A524183088B4201D38B00C01A65
:1002D000524143088B4201D34B00C01A5241411A8C
:1002E00000D201465241104670475DE0CA0F00D06F
:1002F0004942031000D34042534000229C46030968
:100300008B422DD3030A8B4212D3FC22890112BAED
:10031000030A8B420CD3890192118B4208D38901C5
:1003200092118B4204D389013AD0921100E08909DD
:10033000C3098B4201D3CB01C01A524183098B42BE
:1003400001D38B01C01A524143098B4201D34B01A7
:10035000C01A524103098B4201D30B01C01A52410A
:10036000C3088B4201D3CB00C01A524183088B4291
:1003700001D38B00C01A5241D9D243088B4201D31A
:100380004B00C01A5241411A00D201466346524105
:100390005B10104601D34042002B00D54942704704
:1003A00063465B1000D3404201B50020C046C04602
:1003B00002BD7047704770470246C80FC0078143AF
:1003C0004B0030B54B405B009B0D20D01923DB0662
:1003D000C91801231B05994220DB0324A407042527
:1003E0001346AB400BD3002B04D1EB0613409B000C
:1003F000E34204D401246407002312195941FF2366
:100400001B0599420BD2C9000143500F09E0CB02F2
:1004100004D501430803024305D0054830BDFF2140
:10042000C905084330BD084607210905884330BD8A
:100430000000C07FF0B50C46871A9C410D46861A15
:100440009D4103D2C01BA141D21963410D0D1F0D67
:10045000C94EEC1BAE435CD07F057F0D0026002FFC
:1004600051D02D05AC46A943DD020123ED0A1B0541
:100470001D4320231B1B24D41746E7403818714125
:100480002F46E740CC199D402818314661410C0D9C
:1004900027D161449A4013D50023401C5941520092
:1004A0000ED14008400001224B005205D34207D331
:1004B00005204007C14201D5B04900E0B0493046AF
:1004C000F0BD6B00002A00D001229A181F23203CA7
:1004D0001B1B01D5002302E0E540281871410C0DDB
:1004E000D7D0012424050919C407CD0740084908BD
:1004F000E40F28436144002CD5D00024401C614106
:100500009A40D0D1CDE76A05520DD9D1C90FC9079C
:10051000D5E79C4D4E00002801D0012400E00024C6
:1005200034195F00002A01D0012600E00026BE1920
:10053000954FAC420CD8AE420AD8B44206D0012541
:100540006D05EC42BCD010461946F0BD9942FCD076
:1005500000203946F0BDF0B51FB40C460F46811A95
:100560009F412546861A9D4106D20125ED076F4021
:10057000401ABC4152187B41210D1E0D8D1BAC460B
:100580007D4D8D437ED075056D0D7CD00D05AE463D
:10059000AC431B031B0B794D52429D412023664601
:1005A0009B1B14D31746F74038180026009074415F
:1005B00060462F460741E41900989D40281866417F
:1005C00016D4714671189A4025D5012320E093185E
:1005D0002A466A415200002B00D0521C1E23203EA6
:1005E0009B1B002B61DD3541EE1728186641E8D5CD
:1005F000001876415B1C9A4000D3401C4B05F31851
:100600001524E34010D3002B52D071467118D30F3C
:10061000C01802D3491C05B0F0BD0123DB079A4284
:10062000F9D140084000F6E701225205B21801D185
:10063000002853D00123CC0ADB029943891E002AEB
:1006400008D1020C03D0020C0004103902E002466B
:10065000002020390023550B05D112020823550B29
:1006600001D152010D23550C01D112011B1DD50CD6
:1006700001D192009B1C150D01D152005B1C20255D
:10068000EE1A01E02CE022E00546F54015439840C3
:10069000CA1AE10769181305C918002ABBDA032032
:1006A00040070818C10FC9070FE071466118B2E78B
:1006B000F10740080843711071444A000CD001232F
:1006C0005B059A42A7D2C90FC9070020A3E74905D5
:1006D000490D26D1002001E00028F4D100219AE73D
:1006E000284D6600002801D0012100E0002171188A
:1006F0005F00002A01D0012600E00026BE19224F2B
:10070000A94210D8AE420ED8B14208D001256D05DD
:10071000E94206D01946A802414010467BE79C42B8
:1007200001D0214677E70020394674E710B50C4622
:100730005C4005D50124E4076340FFF70CFF10BDC2
:10074000FFF778FE10BD30B40C465C4004D50124A0
:10075000E407634030BC6DE630BCFCE670B50124B4
:10076000E40761400D465D4002D4FFF763FE70BDB3
:100770006340FFF7F0FE70BDFF0700000000F0FFD0
:100780000000F07F0000E0FF0000F87FF0B5F94DB9
:100790000C091E092C402E402F468BB0A7437DD05C
:1007A000B543FCD0002E7AD0002CFCD00D465D4025
:1007B000ED0F2543AC1BFF25AD0464190894C50259
:1007C000440DC9022143500DDC0204430120C0073F
:1007D00001430443D2020191200C110C00958C4678
:1007E000010423468B430A9161460904E24D8A4382
:1007F0000991010A7D4449198039097805464D431C
:1008000001266D18F605751B6943C90C640B891C1C
:100810004C436418B5012C1B250C2E04B4434C43E7
:100820004D43210C691889090591009DE90701D004
:100830000121C90704912C4601996708CD072F4370
:100840004C08059DE10B4D432D0C2946664675432A
:1008500002950D4645432E46029D7D1BB4410095F1
:100860000D465D4301942C0C2F040D465543AE46B6
:100870002D0C3D43029503947546049C2D04641B86
:10088000049406D2029C039D641C002675410395C6
:10089000029401AC70CC009F7D1B01E03EE162E15F
:1008A000B44109040095079101940599A408614396
:1008B000090C0C464443650BE7040C46664674433A
:1008C000A646640B3C43039502947446049DE404DD
:1008D0002C1B049406D2029C039D641C00267541C7
:1008E0000395029401AC70CC009F7D1BB441019430
:1008F0000C465C430095650FE7000C465443A64642
:10090000640F3C43039502947446049DE4002C1B41
:10091000049406D2029C039D641C00267541039535
:10092000029401AC70CC009F7D1BB441AE09AF06B0
:10093000049DC900AD092F43049DA406AD0604958E
:10094000079D344369180791059DE10B4D432D0C1C
:1009500029466646754302950D4645432E46029D3F
:100960007D1BB44100950D465D4301942C0C2F0472
:100970000D465543AE462D0C3D43029503947546F6
:10098000049C2D04641B049406D2029C039D641CE9
:10099000002675410395029401AC70CC009F7D1B2D
:1009A000B44101948C050694079C890A611800954E
:1009B0000791019C0599A4086143090C0D46454324
:1009C000680BEF040D46644665436C0B3C43049F83
:1009D000ED047D1BAC4602D20025641C6841009EDC
:1009E000019D371B85410846584301950C46460F2B
:1009F000C5005443600F28436546E4002C1B02D217
:100A00000025401C6E41019D3F1AB5412846BD0995
:100A1000800628438446A009BF064E020699A40614
:100A200076180743079D002068410A9907901943EB
:100A30000020099B00906046FF1913434041E20FDC
:100A400064003A43A4460446D71A8C41A04203D915
:100A50000120009020463A46C70F94184041624654
:100A6000D20F2243644664000494009CBE46640096
:100A7000D71AA446044602978C417746002F01D12D
:100A8000A04204D96046401C8446029A2046C40F06
:100A9000A64694184041049A0546D20F2243644664
:100AA0006400D31A8D417146002901D1A84202D9B0
:100AB00028461A46641C10430122002800D0164321
:100AC00061020020079B891904465C410223002C27
:100AD00002DB491813466441089DCE0A2D145D19A6
:100AE0004B056705E10A2C050D1908993E43C90716
:100AF0006940002B08D0934006D30022761C514158
:100B0000002B01D1760876001C4A002D43DB1542EC
:100B100041D0AA433FD030460BB0F0BD06180D4679
:100B20004D41174C7642AC411AD395181C465C4196
:100B3000134A6D42A24113D3012252054C00D44204
:100B40000AD15C00D4420BD04B4002D59202114333
:100B5000E2E749004908DFE75940C90FC90718E033
:100B600000200849D8E7054801420DD10342F7D0DB
:100B7000F2E700000000FF07AF5E00000000F07F1A
:100B80000000E0FF0000F87F114859400143C01207
:100B900041400020C0E70123089A9B069A4205DCE9
:100BA000032252078918C90FC907B5E70522520762
:100BB0008918074A1143D2125140ADE770B5154666
:100BC0001C4602460B4628462146FFF7DFFD70BD56
:100BD000FFFFFF7F1F22030C02D10F22000402D06F
:100BE000030E03D004E00020014670470002083ADB
:100BF000030F01D10001121F830F01D18000921E4B
:100C0000002801DB4000521E120551184205C01297
:100C1000411810467047C10FC90700D04042012259
:100C200092071143D6E701218907D3E7F0B58B4C32
:100C30000F09254689B0BD437BD01D092646AE432A
:100C4000FAD00E465E402740F60F3E43254071D055
:100C500024012142FBD0FF24AD19A4042D1B0395D0
:100C600001252D05DB02DB0AC9022B43C90A2943F2
:100C70001E010901040F130F050121431701880B01
:100C8000820391432D098C46A90B1E438A03954389
:100C9000B30B9A0396433F09BA0B9403A7430296FA
:100CA0002E467E430497B6464E19D7190C46019638
:100CB000544305977E43371B7646BF1B3601B64625
:100CC000BE0B361900967646BC043719009C01D33A
:100CD000641C00946400002F01D001263443029E5E
:100CE000049F754366467E430496760034196E0071
:100CF00034190094029C019E1C196643751BAE4674
:100D0000069465464519059C05956C4359437546FF
:100D10000891691A0191049E01465143A41B049154
:100D2000611A009C0791E10605D061090122114377
:100D300002E072E06EE06109089D00272C0A2D0692
:100D40006918049D7C412A0A2D066918019D62419B
:100D5000AC0DAD026D185441079A910D92025519D0
:100D60006141029A644658435443069B059A5A438C
:100D7000121A131B9A0E9B015B187A41010B000596
:100D8000C3185141220A200644195A419A4200D2FE
:100D9000491C01204002814203D315230226F64359
:100DA00002E014230326F6432020C51AA940174663
:100DB000AF40DA400A4320460399D840091473181B
:100DC00019055118039A3843D2075140AC4009D055
:100DD0000122944006D30022401C5141002C01D135
:100DE000400840001E4A934212D301220398920603
:100DF000904207DB0520400709181A480143C0123A
:100E0000414004E0032040070818C10FC907002033
:100E100009B0F0BD0020F107FAE705180C464C4177
:100E200011486D42A04115D394181A465A410E48F4
:100E3000644290410ED301204A004005824209D30A
:100E40005A00824206D35940C90F084AC9070020F8
:100E50001143DDE700200649DAE700000000FF0744
:100E6000FE070000FFFFFF7F0000E0FF0000F07FB3
:100E70000000F87F70B505464800440D124B002075
:100E8000002C0AD0634008D09A4206DA6642B24289
:100E900003DD12054019514170BD002C08D0002B14
:100EA00009D0C90FC907002AF6DB084A114370BDF3
:100EB000C90FC90770BD28460A03104302D000209D
:100EC000034970BD284670BDFF0700000000F07F99
:100ED0000000F87F0121C9050123411842001B06CB
:100EE000D3185B0E0AD0C1100722D206891840071A
:100EF0005242D14201D5520089187047090208D5E3
:100F00000146002A03D0C10FC907002070471046D0
:100F10007047420202D000200249704707210905AC
:100F20000143F4E70000F87FF0B5FF252D04C60962
:100F3000C209FF2704462E400137CB093E434840F3
:100F40002A402B400746002A6BD0002B69D0AA42CA
:100F500067D0AB4265D0002800DA32460125ED05A6
:100F600029432C4309022002090AD21A4B0C7F2480
:100F7000E31A434C000A7C44E35C7D2424041219E8
:100F800014145B00A218884201D3521C00E04000F8
:100F900049420C465C4324115C43DB016415E318B1
:100FA000040A5C43C502200D0C4644436419250A1B
:100FB0005D432303EC0C0D46654300030019EB1859
:100FC0004C42A34201D35B18401CD4052018002BCF
:100FD00007D05B00C91804D3401C002901D1400888
:100FE00040003F2189048A4209D3002A08DC110607
:100FF000090F04D0032149074018C00FC007F0BDF6
:1010000001224100120689187F2252069142F6D22F
:1010100005214907C84201D59010F0BDFF20C00549
:10102000F0BD002F00DA32461648AA4207D2AB4282
:1010300005D21902090E17D0F80FC007F0BDFF2521
:1010400063002D06AB42F9D84900A942F6D8AB425D
:1010500001D1A942F2D0A94201D1002101E06100F1
:101060004908D0050843F0BD1102090EFBD0FF204E
:101070000243D005F0BD0A460146104654E7000081
:10108000AD5700000000C07F10B501469E2400024D
:10109000CA15A307002A02D01843002A04DBA21AAB
:1010A000002A0CDDD04010BD1206120E01D1400006
:1010B0004008A21A03D4D04040420028F3DDFF22AA
:1010C00048001206904201D9002010BDC817C04345
:1010D000584010BD0102C21504D00123DB0719439B
:1010E000002A0ADB9E239A1A02D40846D040704791
:1010F000FF2241001206914201D900207047C0171B
:10110000C04370471F22030C02D10F2200041CD0E1
:10111000030E01D10002083A030F01D10001121F92
:10112000830F01D18000921E002801DB4000521E77
:10113000D2055118021251181922904004D3491CAB
:10114000002801D14908490008467047C10FC90766
:1011500000D04042012292071143D3E701218907C1
:10116000D0E7000010B5FF231B0644009C421DD8A9
:101170004C009C421AD80346124A0B4307D4401A2B
:1011800002D3EFF3008010BDEFF3008010BD081A0A
:1011900006D2EFF3008001219043C907084302E023
:1011A000EFF30080904380F3008810BD0D231B04F3
:1011B0001A4204D01146002000F006F810BD00F0DD
:1011C0001BF810BD00000090C80212D54803400F64
:1011D000002804D0C803C043012188407047EFF3C2
:1011E00000800001000903210907084380F30088FB
:1011F000704700207047000010B5024800F02BF83F
:1012000010BD00000000C07F754600F053F8AE46E8
:10121000050069465346C008C000854618B020B591
:10122000FEF7CEFF60BC00274908B6460026C0C5C1
:10123000C0C5C0C5C0C5C0C5C0C5C0C5C0C5403D8E
:1012400049008D46704710B50446C046C04620464A
:10125000FEF773FF10BD10B50C461107090F0929E1
:1012600004D00A290AD008290CD104E0114608202C
:10127000FFF7AAFF06E0510606D501E0510601D5A9
:101280000120C007214610BDD10607D5010109097B
:10129000CC084907000E0006044309E0410F200274
:1012A0004907000A0143200E00061D22D1410143D7
:1012B0000846E7E700487047F42900200149182054
:1012C000ABBEFEE726000200704770B58C180578AB
:1012D000401C6B075B0F01D10378401C2A1106D11B
:1012E0000278401C03E00678401C0E70491C5B1E0F
:1012F000F9D12B0705D40023521E0DD40B70491CC5
:10130000FAE70378401CCB1A921C03E01D780D709D
:10131000491C5B1C521EF9D5A142D8D3002070BDD8
:101320000122D203002903D00168114301607047F4
:10133000016891430160704701221203002903D024
:101340000168114301607047016891430160704773
:101350000021C160016081600121416070477047D8
:10136000002A03D002680A430260704702688A4379
:101370000260704710B50268054B1A408C680B6814
:1013800023438C891443234303604968C16010BD23
:10139000E0F7C8FF0268520952010A430260704731
:1013A0000168802211430160704700218181416002
:1013B000012292040260816070470000FFB5196845
:1013C00081B0814273D9002018606CE000990398C5
:1013D000455C06212846484336490A5A4418608825
:1013E000101A06B2284601F087FF33480778784282
:1013F000864220DBBE421EDC3048E9000D18E8883A
:101400008019E88001F054FF0621695E884202DC01
:101410006088401C08E001F04BFF0621695E4042F5
:10142000884204DD6088401E60800020E880002043
:101430006870687134E0864220DA2048E9000D18AF
:101440006878401CC6B26E70002068711C48017834
:101450003046FEF701FF002922D11A4818490078CA
:1014600009784843864205D3002068701649012058
:10147000087015E060887908401A10E0BE420FDD60
:101480000E48E9000022081842704179491CC9B28F
:101490004171202904D142716088B90840186080E8
:1014A0000098401CC0B20299009088428ED305B0CB
:1014B000F0BD0000C42900202F0100208429002055
:1014C000A0660008A16600083001002070470000F7
:1014D0000248C16B01221143C16370470003004001
:1014E00070470000224A01239068DB03D168434023
:1014F0000B4325D001231B0443400B4323D001237E
:101500005B0443400B432DD001239B0443400B431A
:101510001CD00123DB0443400B4326D001231B05D1
:1015200043400B4315D001235B0543400B4313D0CD
:1015300001239B055840084311D0FF2010707047CD
:101540000120107070470220107070470320107047
:1015500070470420107070470520107070470620F7
:101560001070704707201070704708201070704787
:1015700008000020FEB500240025074F1026200596
:10158000010C3B4605A2CF200196009500F0DCFC43
:10159000641C0F2CF3DDFEBD82F80000202020200B
:1015A000202020202020202020202000F8B5174EC9
:1015B0000221304600F050F801280ED102213046B9
:1015C00000F031F80021304600F02FF8104D287857
:1015D0000124002802D00F480470F8BD0E4F0121ED
:1015E0003846FFF7D7FE0D49304600F065F8FF2179
:1015F000F531304600F05EF82C700121304600F0E5
:1016000014F83846FFF7CCFEF8BD00000008014092
:101610002100002020000020102102405C06002054
:10162000704770477047016170478022002903D0DE
:101630008168114381607047816891438160704780
:1016400010B5002807D00121084600F0F5FD002163
:10165000012000F0F1FD10BD0246002012690A428F
:1016600000D001207047002A03D082680A438260BC
:10167000704782688A4382607047000030B5826894
:101680000B4B1A400B884C88CD8823438C882C4305
:1016900023430C8923434C8923430C69234313437D
:1016A00083604A6902608A694260C968C16030BD6E
:1016B0002000FFC0C1607047416070470021018079
:1016C00041808180C18001814181016170470000BA
:1016D000F0B58DB00121084600F0A0FD0024684659
:1016E000048603218185C4850BA92B4800F006F9E7
:1016F0002A4D2846FFF7A4FF6846FFF7DFFF28487A
:10170000059028480690FF20F53003906846048134
:10171000A915C180042181803B2000060490684601
:1017200044800221018069462846FFF7A7FF012275
:1017300051042846FFF797FF1B48EE1406601B482C
:1017400001680902090A0160154F083F3846FFF792
:10175000FFFD07A8FFF729FE68460685F001079000
:101760000994089407A93846FFF704FE002138467B
:10177000FFF710FE01213846FFF7DEFD0121284664
:10178000FFF753FF01213846FFF7CAFD3846FFF740
:1017900007FE0DB0F0BD0000001001400008014040
:1017A000182102407402002000E100E008E400E09B
:1017B00070B513480178012920D1002101704170D2
:1017C000104C2046FFF7E6FD0F4D00212846FFF79D
:1017D0002CFF0E492846FFF76FFFFF21F531284601
:1017E000FFF768FF01212846FFF71FFF0549103961
:1017F0000969090602D42046FFF7D2FD70BD00003A
:101800002000002010210240000801407402002046
:10181000FFB583B00C981446834201D1134D00E00C
:101820000025039810260838114F002C08DB80B2E1
:101830003B4610A201960095049900F085FB07E055
:1018400080B23B460CA201960095049900F07CFB07
:10185000009702960195002C00DA6442A2B203239D
:101860000499039800F030FB07B0F0BDFFFF0000C3
:1018700082F800002B0000002D0000001CB5049C25
:10188000A34201D1044B00E00023102400930194F3
:10189000024B00F059FB1CBDFFFF000082F8000066
:1018A000F8B506210446134F4C43E519395BAA8865
:1018B0008E1A01F021FD0101B14202DB4942B14221
:1018C00006DDA88838530C480178491C01700EE0E9
:1018D0004010B04202DB4042B04201DD385B05E01F
:1018E000A888C108401A395BC9084018A880A88890
:1018F0003853F8BDC42900202B010020F0B54B88D7
:101900000A88022B04D0012B06D0002B0CD012E049
:10191000036A134303620EE0036A93430362026C9B
:101920000B881A43026406E0036A93430362026C65
:101930000B889A430264036E00220E880327012459
:101940009440264206D054003D46A540AB438D88C6
:10195000A5402B43521C102AF1D30366F0BD00684A
:10196000084201D0012070470020704708B5009060
:10197000012007E0CA0701D0009A10704908009AB8
:10198000521C00920029F5D108BD000010B50020BE
:10199000084B094C1A8821888A4201D9012003E0AA
:1019A0008A4201D20020C043002802D00349198096
:1019B000218010BD0000002024000020102700001E
:1019C000704770477047704710B500F079FE01F01E
:1019D000F1FC10BDF0B585B0FF200090002001465D
:1019E00002460190D048002406C02546274628E03C
:1019F000384606214843CD490A5A40184088101AF3
:101A000006B2002E1BDD384601F076FC00B2A6427D
:101A100003DB25463446009702E0AE4200DB354644
:101A2000C10F09184910B14203DAC14A1178491CA3
:101A30001170864203DD0198401CC0B201907F1CEA
:101A4000FFB2BC4E30788742D2D3BB48BB4F01684F
:101A5000406801434BD10198B94904280BD3087859
:101A60003246401CC0B208701278921E90421BDDB4
:101A70000020087015E000220A70AE49AC480B78CF
:101A80000078B0495B1E984210DBAF4B1878401CC1
:101A9000C0B218700A70AD490978491E884203DD4A
:101AA0001A70AB490120087005B0F0BD0528A648A2
:101AB00002700CD90878A54A401CC0B20870127890
:101AC0005308834213D20A70012038700FE00A7065
:101AD000387801280BD19F4B9C491878401CC0B224
:101AE00018700978C900814201D21A703A700098C2
:101AF000FF281DD001F000FC00B2844211DD611B03
:101B0000801081420DDD012002900021009AFEF735
:101B100093FB854A03C288480168406801430AD0A4
:101B20002EE000200146024602907F4806C030E0C9
:101B3000002002902DE00098874CC00000198178A9
:101B4000FA2901D2491C8170397801297F49097825
:101B500001D18906090E8078884211D300F090FFE8
:101B60007948002101700846337807E0009A9042D6
:101B700002D0C20012199170401CC0B29842F5D335
:101B800000980021C2007448101841704171C17062
:101B9000C1800024C1E00098A04202D10298002830
:101BA0007ED120460621484360490A5A4518688874
:101BB000101A06B2204601F09FFB00B2039067485E
:101BC000007801904042864226DB01998E4223DC58
:101BD00059480168406801435FD15F48E1000F1830
:101BE000F8888019F88001F063FB0621795E88424D
:101BF00002DC6888401C08E001F05AFB0621795E8F
:101C00004042884204DD6888401E68800020F880D9
:101C100000207870787140E0864220DA4E48E1007A
:101C2000091804914878401CC0B248704C490746D6
:101C30000978FEF711FB00292FD14948494900785E
:101C400009784843874206D30499002048704049E8
:101C50000120087021E069880198081A1CE00198A9
:101C600086421ADD224601200021FEF7E5FA324ABB
:101C70000CCA1040194008430FD13748E10008183A
:101C80004179491CC9B24171202906D10021417115
:101C9000019869884008081868802246012000E001
:101CA00039E00021FEF7C8FA234F0CCF104019404D
:101CB000083F084320D003988110401AB04212DD3B
:101CC0002548E1000D18E878401CE87001F030FB71
:101CD000E978814215D30022EA701046114603C705
:101CE000AA70083F0DE01C48E1000818C1780029DF
:101CF00007D0491EC17004E017490020E2005118C6
:101D0000887003CF084306D1174802781748017836
:101D1000204601F00BFD641CE4B2064800788442C2
:101D200000D238E7C0E60000A0010020C42900204E
:101D3000310100202E010020400100209D010020E3
:101D40009B01002099010020980100202D01002016
:101D5000300100209A010020842900202F0100205A
:101D6000A1660008A0660008A5660008A66600082F
:101D7000F8B507460C4615461E462A2000F022F903
:101D80001021384600F0F8F81021284600F0F4F849
:101D90002B2000F017F91021204600F0EDF810215B
:101DA000304600F0E9F82C2000F00CF9F8BDFFB542
:101DB00081B00A9D06460F46002409E023463246BC
:101DC00021460020009500F0F7FE0498201884B208
:101DD000BC42F3D9002409E03B46224600212046BC
:101DE000009500F0E9FE0398201884B2B442F3D9BC
:101DF00005B0F0BD10B514460B460246FFF7B8FF1C
:101E00001021204600F0B8F810BDFFB581B00D4696
:101E100016461F46781E83B2701E82B2294601986C
:101E2000FFF7A6FF0BE0019C05E010210A9800F0E7
:101E3000A3F8641CA4B2B442F7D36D1CADB2BD428A
:101E4000F1D305B0F0BD0000FFB581B00B9E740862
:101E5000E30873430093203AD2B203928A19521EC8
:101E600093B20219521E92B2FFF782FF002522E0C0
:101E7000102E10D0202E21D1039811498001401836
:101E8000475D00240120A04038420AD01021049868
:101E900000F072F809E003980A4900014018475D14
:101EA000EFE710210A9800F067F8641CE4B2082CF0
:101EB000E8D36D1CADB200988542D9D305B0F0BD12
:101EC000904E0008A0480008FFB583B00E9E1D4646
:101ED000002770080290002424E0281B401EC1B295
:101EE0000A2002F095FB01460598FEF7B5F90A2194
:101EF000FEF7B2F9002F05D1681E844202DA0029EC
:101F000014D001270D9830310090CAB2029803997D
:101F100060434018019680B20C9B0499FFF794FF30
:101F2000641CE4B2AC42D8D307B0F0BD0D98009069
:101F30000298039960434018019680B220220C9BBE
:101F40000499FFF781FFEBE7FFB583B00D9E0546CF
:101F5000144677080AE00C98019600902846069BE4
:101F60000499FFF771FF781985B2641C2278002A62
:101F7000F1D107B0F0BD000070B506460F4C08293E
:101F800017D0A105204600F0A5FD0D4D00202871B9
:101F9000052001F0A9FE3146204600F0DBFD606817
:101FA000C007FCD001226260052001F09DFE2A716D
:101FB00070BD0021204600F08DFDE6E74010024094
:101FC0000011014010B50246074C0021E1700520C8
:101FD00001F08AFE08211046FFF7CEFF052001F030
:101FE00083FE0120E07010BD001101407047000029
:101FF00010B5884C20212046FFF7B8FC042120466C
:10200000FFF7B4FC322001F06FFE1120FFF7DAFF7A
:102010003A20FFF7D7FF08210520FFF7ADFFC520C5
:10202000FFF7D0FF08211A20FFF7A6FF3620FFF7A1
:10203000C9FF08216020FFF79FFFB220FFF7C2FF12
:1020400008210520FFF798FF08210520FFF794FFDE
:1020500008210020FFF790FF08213320FFF78CFFB5
:1020600008213320FFF788FFB720FFF7ABFF0821D7
:102070000520FFF781FFBB20FFF7A4FF08213F20C9
:10208000FFF77AFFC020FFF79DFF08212C20FFF704
:1020900073FFC220FFF796FF08210120FFF76CFFB6
:1020A000C320FFF78FFF08210F20FFF765FFC42033
:1020B000FFF788FF08212020FFF75EFFC620FFF70B
:1020C00081FF08210120FFF757FFD020FFF77AFF9B
:1020D0000821A420FFF750FF0821A120FFF74CFFA3
:1020E000E820FFF76FFF08210320FFF745FFE920F5
:1020F000FFF768FF08210920FFF73EFF08210920AC
:10210000FFF73AFF08210846FFF736FFE020FFF708
:1021100059FF0821D020FFF72FFF08210520FFF7E6
:102120002BFF08210920FFF727FF08210920FFF7CF
:1021300023FF08210846FFF71FFF08211420FFF79F
:102140001BFF08212820FFF717FF08213320FFF786
:1021500013FF08213F20FFF70FFF08210720FFF79B
:102160000BFF08211320FFF707FF08211420FFF7BA
:1021700003FF08212820FFF7FFFE08213020FFF78A
:10218000FBFEE120FFF71EFF0821D020FFF7F4FE41
:1021900008210520FFF7F0FE08210920FFF7ECFEDB
:1021A00008210920FFF7E8FE08210846FFF7E4FEB2
:1021B00008210320FFF7E0FE08212420FFF7DCFEC2
:1021C00008213220FFF7D8FE08213220FFF7D4FE85
:1021D00008213B20FFF7D0FE08211420FFF7CCFE9A
:1021E00008211320FFF7C8FE08212820FFF7C4FEAE
:1021F00008212F20FFF7C0FE2020FFF7E3FE11206B
:10220000FFF7E0FE782001F06FFD2920FFF7DAFEEE
:1022100010BD00000011014070470000054A002970
:1022200003D0116801431160704711688143116048
:102230007047000000300040054A002903D0516873
:1022400001435160704751688143516070470000FD
:102250000030004005498A01002803D00868104377
:1022600008607047086890430860704700000240AB
:1022700004490A6807231B059A430A600A68024357
:102280000A60704700000240054A002903D0116827
:10229000014311607047116881431160704700006D
:1022A0000000024001220649D205002803D0086838
:1022B000104308607047086890430860704700004A
:1022C0000010024004490A6807231B059A430A606C
:1022D0000A6802430A60704700100240054A00295C
:1022E00003D0116801431160704711688143116088
:1022F000704700000010024001220649D205002864
:1023000003D008681043086070470868904308606D
:10231000704700000020024004490A6807231B059B
:102320009A430A600A6802430A607047002002402C
:10233000054A002903D011680143116070471168F4
:1023400081431160704700000020024004490A6880
:1023500007231B059A430A600A6802430A60704714
:102360000030004000B50246FF2000F0F1F80649B9
:102370004023002A03D048691843486100BD4869DA
:102380009843486100BD00000030004000B502469F
:10239000FF2000F0DDF806490B14002A03D048693D
:1023A0001843486100BD48699843486100BD00007A
:1023B0000030004000B50246FF2000F0C9F8064991
:1023C0002023002A03D048691843486100BD4869AA
:1023D0009843486100BD0000003000407047000095
:1023E00000B50246FF2000F0B3F80649CB13002ADF
:1023F00003D048691843486100BD48699843486163
:1024000000BD00000030004000B50246FF2000F093
:102410009FF806490223002A03D0486918434861FF
:1024200000BD48699843486100BD0000003000408D
:1024300000B50246FF2000F08BF80649002A04D0C0
:10244000486901221043486100BD486940084000C6
:10245000486100BD0030004030B50346FF2000F069
:1024600077F81B4A506903242403A043204350619A
:102470001848802583421BD0FF2000F069F850697E
:102480000721C901884318435061506928435061AE
:10249000506900060AD5D81FFF38FA3804D15069B0
:1024A000A043A90108435061002030BD012030BD88
:1024B0005069A84350615069000607D45069A04391
:1024C0000121090308435061002030BD012030BDC7
:1024D000003000407FFF000010B502460B4C042383
:1024E000012A0ED0FF2000F033F8206998432061C4
:1024F0000749886960239843886188691043886127
:1025000010BD20691843206110BD000000E000E00C
:10251000003000400649002804D008690322104317
:1025200008617047086980088000086170470000F2
:1025300000E000E00449401E884203D80349486196
:102540000020886170470000FFFFFF0000E000E00E
:10255000402803D30249C86000207047012070471B
:10256000003000401FB5002069468881072109041A
:1025700000911049019102900F4C69462046FEF7E8
:10258000F9FE0A212046FEF705FF0122110220462E
:10259000FEF7E6FE00212046FEF7CEFE03211D20B9
:1025A00001F080FB1D2001F071FB01212046FEF7A8
:1025B000B7FE1FBD03FC000010210240F0B59BB028
:1025C000022410A98C84CC8400250D8519A93948D2
:1025D000FFF794F9042610A98E83CC830D8417A9E4
:1025E0003448FFF78BF9082010A98882CC820D832C
:1025F00015A93048FFF782F9102010A98881CC81F5
:102600000D8213A92B48FFF779F9202010A98880A3
:10261000CC800D8111A92748FFF770F94027694642
:102620008F87CC8710A90D800FA92248FFF766F984
:10263000802069468886CC860D870DA91D48FFF746
:102640005DF9E00169468885CC850D860BA919489E
:10265000FFF754F969468F840120C8840D8509A9C4
:102660001548FFF74BF969468E83CC830D84134ED2
:1026700007A93046FFF742F9082069468882CC82D4
:102680000D8305A93046FFF739F910206946888186
:10269000CC810D8203A93046FFF730F9202069462E
:1026A0008880CC800D8101A93046FFF727F91BB047
:1026B000F0BD000000120140001001400011014077
:1026C00010B5FFF77BFF00F011F800F010F800F0F4
:1026D00083F800F083F900F03BF800F091F800F087
:1026E000DDF800F023F9FFF73DFF10BD704710B58E
:1026F000FF20FFF72DFF0020FFF75CFE0020FFF713
:1027000097FE0120FFF780FE0120FFF72BFE01203E
:10271000FFF766FE0120FFF739FE01204002FFF7B8
:102720009BFE0020FFF712FE0020FFF7A1FD012015
:10273000FFF790FD0020FFF7C5FD0120FFF7B2FD78
:102740000020FFF7E9FD0120FFF7D6FD10BD0000D6
:1027500070B58AB0012568460584458400248484C8
:102760001B4E08A93046FFF7C9F8022168460183CD
:102770004583848306A93046FFF7C0F80121102065
:10278000FFF7ACFD04942804009003940294059490
:102790000194104C6946204600F0B2F90021204611
:1027A00000F0C6F900220121204600F09CF9012228
:1027B0004021204600F082F901228021204600F0CD
:1027C0007DF90121204600F06BF90AB070BD0000D0
:1027D000001101404010024010B5FF20FFF7B8FE85
:1027E0000020FFF779FE7D20C001FFF7A3FE002146
:1027F000481E01F057FA0120FFF78CFE10BD0000C3
:1028000030B585B001210846FFF73EFD002468463B
:10281000448104818481032149020182C4811E4DC7
:1028200002A9284600F00EFB68468480C48001A9F6
:10283000284600F0D5FA0021284600F0C3FA684681
:10284000048044806946284600F0E1FA32220121E2
:10285000284600F0E8FA32220121284600F0E3FA87
:1028600001221146284600F0C6FA0122022128461C
:1028700000F0C1FA00220421284600F0BCFA03212E
:102880000F2001F00FFA0F2001F000FA0121284675
:1028900000F076FA05B030BD000102401FB50121FD
:1028A0000220FFF71BFD00206A46D080FF21013186
:1028B0009180402111814902918150811A4C01A9D6
:1028C000204600F0BFFA04216A4611800821518099
:1028D0006946204600F084FA0121204600F072FA91
:1028E0000021204600F0A7FA01221146204600F000
:1028F00082FA01220421204600F07DFA01220821FB
:10290000204600F078FA00220221204600F073FAF7
:102910000221132001F0C6F9132001F0B7F90121BB
:10292000204600F02DFA1FBD401102401FB50121C5
:102930000420FFF7D3FC00206A46D080FF2101313C
:10294000918040211181490291815081224C01A93D
:10295000204600F077FA04216A4611800821518050
:102960006946204600F03CFA0121204600F02AFA90
:102970000021204600F05FFA01221146204600F0B7
:102980003AFA01220421204600F035FA01220821FA
:10299000204600F030FA00220221204600F02BFAF7
:1029A00001222021204600F0F9F900224021204692
:1029B00000F0F4F900221021204600F0EFF9022186
:1029C000142001F06FF9142001F060F90121204674
:1029D00000F0D6F91FBD00008011024070B588B02C
:1029E000012109036846018301244483002585836E
:1029F000204E06A93046FEF781FF6103684601823A
:102A00004482858204A93046FEF778FF0121042024
:102A1000FFF78EFC18480190E120400202900394D9
:102A2000164C01A9204601F0BFF8012211462046AC
:102A300001F0ADF800220421204601F0A8F801229F
:102A40000221204601F0A3F80121082001F02AF913
:102A5000082001F01BF90021204601F0C9F80121EE
:102A6000204601F0DFF80121204601F0C9F808B046
:102A700070BD0000001201400090D00320200240F1
:102A800010B505480549036812C90B434268036045
:102A90002243426010BD000040010020A001002040
:102AA000002904D001688022114301607047016849
:102AB000014A1140016070477FFF0000002A03D0E7
:102AC00002690A43026170470269C94389B20A4038
:102AD00002617047026803231B079A430260026881
:102AE0000A4302607047002A03D002690A43026168
:102AF00070470269C94389B20A4002617047000009
:102B000030B50268094B1A404C680B688D68234346
:102B10000C692C432343CC68496923430B430121AF
:102B2000134389050B43036030BD0000FFF022CF43
:102B30000268064B984202D0054B984202D103230B
:102B40005B039A430A430260704700006000024042
:102B500060100240C16070477047000010B50F4C14
:102B60002078410604D5BF210840207000F090FD78
:102B70002078010610D54006400E207000F0C8FEF7
:102B8000074AD16090600748406B5060FEF7AAFC8E
:102B900001F056F800F07CFD10BD00009E01002001
:102BA000080000205001002001200249C006886072
:102BB0007047000000ED00E0F0B587B000240594F8
:102BC0000025002603940294171A5A1A04920190C1
:102BD0000091601E002F02DD0121039103E0002F10
:102BE00001D003907F420499002902DD0120029068
:102BF00006E00499002903D0029004984042049012
:102C00000498874201DD3C4600E0049C601C06906D
:102C10001BE000980C9A81B2019880B2FFF7EAF8A5
:102C2000ED1904983618A54204DD2D1B039901986F
:102C300040180190A64204DD361B02990098401806
:102C400000900598401C80B205900699059888422E
:102C5000DFDB07B0F0BD000010B5084C01212046B5
:102C600000F0A8F8012807D10121204600F086F8DD
:102C700003484188491C418010BD0000000102400A
:102C8000000000207047704770470000F8B51A4EEA
:102C90000721304600F08EF80127BF03174C184D6E
:102CA00001280ED139462846FEF759FE012808D1E1
:102CB00041032846FEF753FE012802D12088401E1A
:102CC00020800721304600F075F801280FD13946E1
:102CD0002846FEF744FE002809D101214903284671
:102CE000FEF73DFE002802D12088401E20800721EB
:102CF000304600F043F8F8BD4011024000000020CB
:102D000000100140F8B51A4E0721304600F052F885
:102D100001277F03174C184D01280ED1394628464C
:102D2000FEF71DFE012808D181032846FEF717FE95
:102D3000012802D12088401C20800721304600F065
:102D400039F801280FD139462846FEF708FE002839
:102D500009D1012189032846FEF701FE002802D18E
:102D60002088401C20800721304600F007F8F8BD7D
:102D7000801102400000002000100140C160704737
:102D8000002904D001688022114301607047016866
:102D9000014A1140016070477FFF0000002A03D004
:102DA00082690A43826170478269C94389B20A40D5
:102DB0008261704702460020D2680A4200D001209A
:102DC00070470000002904D001680122114301600E
:102DD00070470168014A114001607047FEFF000022
:102DE00010B54A88098803689BB23C24A3430A4370
:102DF0001A43026010BD002A03D082690A4382612F
:102E000070478269C94389B20A408261704702688B
:102E10000F23DB029A430B8849885B03C9020B43EB
:102E2000134303607047022903D0012900D1426196
:102E300070470261704702680123DB049A430A432A
:102E40000260704730B50268074B1A400B888C88C7
:102E5000CD8823434C882C432343134303600989C3
:102E60008160416030BD00009DF8FFFF10B501207A
:102E7000FFF742FA01200249C007086010BD0000B8
:102E800000E100E0F0B500220F4E31462839CD7A3E
:102E900012E00021482353439B195C7C06E05F1835
:102EA00020373F78874203D0491CC9B28C42F6D8FC
:102EB0008C4203D1521CD2B2AA42EAD3AA4201D018
:102EC0000120F0BD0020F0BD50010020F0B5044607
:102ED0008DB000200A9009900890606C401C00277B
:102EE000606427E0E019203001780622084650434C
:102EF000894A7E00135A801840886A46181A00B220
:102F00009053E369984201DD00236364A269904213
:102F100002DA002268468253084600F0EDF90146C5
:102F20006846805F64225043FDF7A0F969467F1C24
:102F30008853FFB2667CBE42D4D8606C00280BD0A8
:102F400000202246203260632346107C4433314601
:102F5000FEF734FA0DB0F0BD00206A4608E04100EB
:102F6000515E0A9B994201DD05460A91401CC0B2A0
:102F70008642F4D80021575E6818421E01D57200BF
:102F800004E0B24201DB384605E042006846121810
:102F9000403A3E20105E491C0246099B4A43D21823
:102FA0000992089AC9B2101808900329E4D3E06B7B
:102FB000FDF739FE0022594BFDF7E8FB07460122D9
:102FC0000B91FDF757FF0022554BFDF7C7FBFDF7AF
:102FD000F3F90A900898FEF7C1F808900998FEF7EF
:102FE000BDF80899FDF7A0FF4E49089001F098FB45
:102FF000FEF74AF820640A98FDF76CFF0A900991E1
:103000000898FDF767FF3A460B9BFDF79CFB0746C8
:103010000B91FF2031466930FDF71EF90890FDF74E
:1030200002FE3A460B9BFDF701FE099B0A9AFDF74B
:10303000ADFBFDF7C1F90746681E08D5FF216931D0
:1030400048433146FDF712F9FF30693005E0FF21B2
:10305000693148433146FDF709F9FEF777F806462E
:1030600008984008FEF77AF8394601F0E9FA314647
:1030700001F0E6FA06462C4F02E001F0A9FB0646F5
:1030800039468E42F9DC2078012815D0656928463A
:10309000FEF764F8314601F043FB3946FDF744FF83
:1030A0007F21C90501F0CCFAFEF714F86063A8424D
:1030B00000D84FE765634DE7FF2708986937381A4E
:1030C000FEF744F8314601F001FB0CD8617C38462C
:1030D000FDF7C2F8791E081AFEF738F80646002DEB
:1030E00001D17F26F605617C3846FDF7B5F8381A20
:1030F000FEF72CF805466069FEF730F8314601F01E
:103100000FFB2946FDF710FF7F21C90501F098FA52
:10311000FDF7E0FF60631DE7C4290020000059406F
:10312000000010400000C8420000B4430248C168DB
:1031300002221143C16070470022024001488069A9
:1031400080B2704700220240044AD1680F231B035B
:1031500000079943000C0143D160704700220240F0
:1031600005498022002803D0C8681043C860704712
:10317000C8689043C86070470022024010B500F054
:1031800001F810BDF8B51B481B4F05781B4E00F029
:103190003BF800240EE0204606214843395AC01966
:1031A00041801748027817480178204600F0BEFA9F
:1031B000641CE4B230788442EDD328466D1EEDB233
:1031C0000028E4D100F05AF800F0A2F8054600F01B
:1031D0001BF8002404E0204600F04CF8641CE4B224
:1031E00030788442F7D328466D1EEDB20028EED128
:1031F000F8BD0000A2660008C42900202E010020AE
:10320000A3660008A466000810B500F001F810BD20
:1032100070B5164D002428784006400E287000F046
:103220003FFB13480078082808D810E000F01AFD8A
:10323000FEF74EF9641CE4B2642C02D228784006F2
:10324000F4D52878BF210840287000F029FB00241D
:1032500007E000F007FDFEF73BF9641CE4B2642CC4
:1032600002D228780006F4D570BD00009E0100202F
:103270002E01002010B5FEF713FB10BD10B5002085
:103280000749064A8B7906E006214143545A8918BA
:103290008C80401CC0B29842F6D310BDC4290020D7
:1032A000280100200149C000085C704784290020E3
:1032B0006420704730B50A2204460E4D544362190B
:1032C0000B0000F0D6FC070507090B0E10121400C6
:1032D000285D30BD907830BDD07830BDFFF7E2FF7B
:1032E00030BD002030BD507830BD507930BD002059
:1032F00030BD0000506600080A21484303494018C9
:10330000017A407A0902081880B2704750660008B6
:103310000A20704701480078704700003001002003
:103320000A21484301494018007970475066000857
:1033300001484079400870472801002003490A6984
:1033400092009208800702430A61704700220240FF
:10335000044A11697F235B02994300020143116112
:103360007047000000220240044A116903231B0732
:103370008007994380080143116170470022024091
:1033800003490A69120A120202430A6170470000E7
:103390000022024010B5064B9878002804D0FFF7B1
:1033A000C5FE0120587010BD002000F039FB10BD93
:1033B0002801002010B5FFF759FD002000F0A0F80B
:1033C0002F49002008702F4908702F49087000F01D
:1033D00079F800F06DFA0120FFF7C2FE00210846DF
:1033E000FFF768FF411C29480088FCF735FF284C8F
:1033F00020800020FFF794FF218848432549097861
:10340000C84000F047FA02210020FFF753FF00F008
:10341000F9FA00210846FFF74DFFFFF795FE062158
:103420000020FFF747FFFFF789FF03210020FFF788
:1034300041FFFFF78DFF05210020FFF73BFFFFF75E
:1034400093FF01210020FFF735FFFFF799FF0421CB
:103450000020FFF72FFF002805D0002000F0FCF827
:10346000012000F007F9012000F0FEF90A48007879
:1034700000F008FAFFF782FE00F010F810BD00001F
:1034800030010020230100209E01002020010020A7
:10349000A80100209C0100204801002010B5002058
:1034A0000749064A8B7906E006214143545A891898
:1034B0004C80401CC0B29842F6D310BDC4290020F5
:1034C0002801002030B500210B4C00220B4DA379C0
:1034D00008E0C800401982704270C270C280027158
:1034E000491CC9B29942F4D30021A161E161FF20D6
:1034F000A0722282227230BD28010020842900207F
:10350000012206491204002803D0C8681043C8608D
:103510007047C8689043C8607047000000220240AE
:10352000F8B5054643480E46007803281ED300240C
:1035300040480029047012D03F4D287800280CD153
:103540003F493E4A0B7806E00621414389188E88A0
:10355000401C4E80C0B29842F6D32C7001E0FFF7B9
:103560009DFFFFF7AFFF37480470F8BD364C207859
:10357000401CC0B22070A84204D1FFF77FFE334840
:103580000021017030480078A842EED90024304F65
:1035900028E020460621484328490A5A40188088D6
:1035A000101A00B2002E12D0234909780029397868
:1035B00007D0CA00824210DA4942C900814217DCB2
:1035C0000BE08A00824208DA49428900F6E739783E
:1035D000884202DD494288420FDB2046FFF74AFE5F
:1035E000641CE4B2164800788442D2D3002E04D082
:1035F00013480078844205D008E01148007840085C
:10360000A04203D211480178491C01700E48E9001C
:1036100002789142A9D8002404700E48AA000470D0
:1036200004480178491C0170084909788A429CD8ED
:10363000047094E72401002022010020C429002006
:103640002E01002030010020AA01002032010020BC
:103650002F0100209D01002005492022002803D0D1
:10366000C8681043C8607047C8689043C860704716
:103670000022024005494022002803D0C8681043B8
:10368000C8607047C8689043C86070470022024015
:1036900010B500F005F910BD70B500241D4D0026D1
:1036A0006E72EE7007E02046FFF7ECFB2046FEF757
:1036B000F7F8641CE4B2A8798442F4D3A87903280B
:1036C00005D9E878022804D8FEF784F901E0FEF76E
:1036D00081F9E87800280AD02879401CC0B2287106
:1036E00069798900814203D20120287200E02E719D
:1036F0000024084E283606E0482060438019FFF772
:10370000E5FB641CE4B2E87A8442F5D3E969A86970
:1037100070BD000028010020014901200870704799
:103720003001002000487047B80B0000F7B50E4686
:103730000746002182B00846FFF7BCFD411C1D482A
:103740000088FCF789FD05463846FFF7ABFD0446C7
:10375000284670430A21FCF77FFD06463846FFF7EE
:10376000DFFD314641430620134A7843801800901C
:103770004088FE00814204DD022C18D30F48A41EAD
:1037800011E004980A216843FCF766FD05463846B7
:10379000FFF7C6FD454300984088854207DAFC2CB8
:1037A00005D80648A41C845505490120087005B0B9
:1037B000F0BD000020010020C42900208429002041
:1037C00030010020F0B500200021FF24E403002593
:1037D000244A01231E468640264202D05054491CEA
:1037E000C9B2401CC0B22028F4D300201A4682403F
:1037F0002A4207D002461B4C20326254491CC9B2EF
:10380000082903D2401CC0B22028EFD30024154859
:103810002038C07A86461FE00022204648235843BD
:10382000104B0833C51812E00020AB181E46203696
:10383000B44608E00B4E5F78365CB74201D166466D
:103840003070401CC0B28842F4D3521CD2B2687CA3
:103850009042E9D8641CE4B27445DDD301482038B5
:103860008171F0BD4801002005491022002803D0D5
:10387000C8681043C8607047C8689043C860704704
:103880000022024001218140014801607047000090
:1038900000220240014980B2C86170470022024004
:1038A0000248C16801221143C160704700220240F2
:1038B00070B5144C0120E072052060714B20E0715E
:1038C000FFF780FF00201049104DA37907E00A227E
:1038D000424352189279C600AA55401CC0B2984281
:1038E000F5D30021A181E1810020064DE37A28353E
:1038F00005E04822424352199163401CC0B29842ED
:10390000F7D370BD280100205066000884290020EC
:10391000FEB5002425463A480078002807D1FFF775
:10392000F9FC002807D000210220FFF7F9FD20460E
:10393000294603B0F0BDFFF7AFFE06460F46002054
:1039400000902F488079019017E001200021009A13
:10395000FCF772FC3040394008430AD028490098EF
:1039600020310A5C01200021FCF766FC04430D4372
:1039700007E00098401CC0B200900199009888426E
:10398000E3D32046284304D01D488189491C818106
:1039900002E01B4900208881FFF7C4FE184EB18960
:1039A000884203D8FFF7B8FE0020B081002722E04C
:1039B000482039464143124828300E18706B0028C1
:1039C0000CD0314620314A7C904203D1B06B401C70
:1039D000B06305E048740020B06301E00020B063EC
:1039E000FFF7A0FEB16B884203D8FFF795FE0020D9
:1039F000B0637F1CFFB20248C07A8742D8D396E7F3
:103A000028010020044A11690F231B06000799436F
:103A1000000901431161704700220240704770475E
:103A200070B506460024FFF781FBFFF787FB2E4D9C
:103A30002978062251432D4A50522878401C28707C
:103A400000222B4980232B48002E07D02E780078A7
:103A5000864212D32A70087818430CE000782E783A
:103A60000828F5D98642F5D22A784008904204D138
:103A7000087840221043087000E001242878FFF7FE
:103A80004FFC1D4909884843FFF704FF02212878AD
:103A9000FFF710FCFFF7B6FF00212878FFF70AFCBC
:103AA000FFF752FB06212878FFF704FCFFF746FCDE
:103AB00003212878FFF7FEFBFFF74AFC0521287851
:103AC000FFF7F8FBFFF750FC01212878FFF7F2FB26
:103AD000FFF756FC09482978405CFFF7D3FE002C1D
:103AE00001D0FFF7DDFE70BD23010020C4290020B6
:103AF0009E0100202E010020A80100204801002086
:103B00007047000010B500F007F80321014800F0ED
:103B100035F810BD2020024010B5154C012120467B
:103B200000F02EF8012811D1204600F077F8C0B23D
:103B3000104A002411780123002908D001290BD054
:103B4000022903D1FE2801D11470137110BDFF2882
:103B5000FCD11370547010BD074B51785854491C58
:103B6000C8B250700428F6D30220107010BD0000B7
:103B70002020024018000020AC0100204160704766
:103B80000246002052680A4200D001207047002AF5
:103B900003D002690A43026170470269C94389B2CE
:103BA0000A4002617047000070B504462068C008F2
:103BB000C0008A68024322608868102500280ED061
:103BC00048680A6801461046FCF746FB07498842E8
:103BD00003D92168294321600009A06070BD2068D5
:103BE000A843206020682843206070BDFFFF0000CC
:103BF000026803235B039A430A4302607047000094
:103C0000002904D001684022114301607047016817
:103C1000014A114001607047BFFF0000C068C00545
:103C2000C00D7047002904D0016880221143016053
:103C300070470168014A1140016070477FFF000032
:103C400000B507490878FF2806D04A78002A02D133
:103C500001224A70887000BD0020487000BD00003D
:103C6000080000207D20C000401E0004000CFBD195
:103C7000704730B47446641E2578641CAB4200D291
:103C80001D46635D5B00E31830BC1847002805DB68
:103C9000C106C90E01208840014908607047000034
:103CA00000E100E08307FF22DB0E9A408907090E3E
:103CB0009940002808DB830809489B00181803680E
:103CC00093430B43036070470007000F08388308D5
:103CD00004489B001818C36993430B43C3617047A2
:103CE00000E400E000ED00E0401E411CFCD1704704
:103CF00010B50C4C40212046FDF731FE00280FD1B5
:103D00001420FFF7F1FF40212046FDF728FE002890
:103D1000F9D01420FFF7E8FF0348C188491CC1808F
:103D200010BD0000001001401800002008B5FDF78C
:103D30004BFE00F077FC0020FF234133F0220146C8
:103D40000090FEF762F80B4800900F231422FF2129
:103D5000C820FEF72CF8FDF7BBFC074C00F00EF86E
:103D60002078012801D1FDF723FDFEF7F7FEFFF7CC
:103D7000BFFFF3E7BD03000020000020FEB5FE4CAE
:103D800001262078002804D00025FC4C012804D00E
:103D90003BE1FDF7EFFB2670FEBDFDF7F7FDF84AAE
:103DA0001178082906D0012804D007290CD0401C1E
:103DB0000AD011E02078401CC0B220700C2801D934
:103DC0000C202070157007E02078401EC0B22070D3
:103DD000002800D126701570EA48018800290ED00D
:103DE000058020780A2806D8E74908182038C17FBE
:103DF0007140C17703E00B2801D00C2869D010274F
:103E0000FF20E24BE2A200210F3001970095FEF760
:103E10009BF8DE4BDFA21021D22001970095FEF720
:103E200093F8DA4BDCA22021D22001970095FEF70F
:103E30008BF8D64BD9A23021D22001970095FEF7FE
:103E400083F8D24BD6A24021D22001970095FEF7ED
:103E50007BF8CE4BD4A25021D22001970095FEF7DB
:103E600073F8FF20C94BD2A264210F30019700954F
:103E7000FEF76AF8C54BC7A27421D22001970095BE
:103E8000FEF762F8C14BC4A28421D22001970095AD
:103E9000FEF75AF8BD4BC1A29421D220019700959C
:103EA000FEF752F8B94BBEA2A421D220019700958B
:103EB000FEF74AF8B54BBCA2B421D2200197009579
:103EC000FEF742F8B04F00963878002807D0B9A224
:103ED00006E0A9490220087015202070FEBDB7A297
:103EE000FF20237810210F30FDF7C8FC022000903E
:103EF0007878002801D0B3A200E0B0A2FF20237898
:103F000020210F30FDF7BAFC03200090B87800287C
:103F100001D0AEA200E0A9A2FF20237830210F300B
:103F2000FDF7ACFC04200090F878002801D0A9A28D
:103F300000E0AAA2FF20237840210F30FDF79EFC6D
:103F4000052000903879002801D0A6A200E0A6A2A2
:103F5000FF20237850210F30FDF790FC06200090C1
:103F60007879002801D093A200E094A2FF20237862
:103F700074210F30FDF782FC07200090B8790028EB
:103F800001D090A200E08DA2FF20237884210F3081
:103F9000FDF774FC08200090F879002801D08BA26E
:103FA00000E086A2FF20237894210F30FDF766FC05
:103FB00009200090387A002801D086A200E087A26C
:103FC000FF202378A4210F30FDF758FC0A20009031
:103FD000787A002801D083A200E083A2FF270F3760
:103FE0002378B4213846FDF749FC0B200090237854
:103FF0007EA2C421FA20FDF741FC0C20009023781A
:104000007CA2E0213846FDF739FC5B4F3878022866
:104010000CD0032800D061E7FDF7B8FC76490A7898
:104020007649002A07D0012A1CD02EE1FDF7A2FA1A
:1040300003203870FEBD012802D0401C09D024E1C5
:104040002078401CC0B22070262801D9262020707C
:104050001BE12078401EC0B22070152801D2152027
:10406000207012E1002814D02778153F3B00FFF79D
:1040700000FE0E081A2C3E506272D5E5101010108A
:10408000F710012806D15E4F3B78112B02D25B1C42
:104090003B70FAE0401C05D1594B1878002801D03C
:1040A000401E1870F1E0012806D1564F3B78072BCF
:1040B00002D25B1C3B70E8E0401C05D1514B1878E4
:1040C000002801D0401E1870DFE0012806D14E4FB5
:1040D0003B78112B02D25B1C3B70D6E0401C05D113
:1040E000494B1878002801D0401E1870CDE00128F7
:1040F00006D1464F3B78072B02D25B1C3B70C4E0D5
:10410000401C05D1414B1878002801D0401E187082
:10411000BBE0012806D13E4F3B78022B02D25B1C4C
:104120003B70B2E0401C05D1394B1878002801D013
:10413000401E1870A9E0374B1F88381800B218804D
:10414000002800DD1D800027DF5F1220C04387426A
:1041500000DA188099E0304B1F88381800B21880B8
:104160000A2801DD0A2018800027DF5F0920C043EC
:10417000874200DA188088E0220000202300002017
:104180000A0000201E0000202700002082F8000006
:10419000434831004D4158004D494E00414D5000BB
:1041A000467265710000000044555459000000003B
:1041B00043483200322E31355600000020202020A6
:1041C00020000000312E303256000000312E3133F5
:1041D0005600000031303030487A00002020202086
:1041E0002020000035302500202020004155544F6C
:1041F000534554002D3E0000260000203E000020C4
:104200003100002032000020330000203400002064
:10421000350000203600002038000020C84B1F88E1
:10422000381800B21880002800DD1D800027DF5FED
:104230001220C043874228DA188026E0C14B1F882D
:10424000381800B218800A2801DD0A2018800027DB
:10425000DF5F0920C043874217DA188015E0FFE7C7
:10426000B94B012805D0187800280AD0401E1870D4
:1042700009E01878401CC0B21870042803D91D70DA
:1042800001E00420187008200870B0480388002B53
:1042900069D0058020780346153B082B10D91E28CD
:1042A0000ED022280CD024280AD0252808D01F2878
:1042B00032D0202857D0212831D0262850D052E0A3
:1042C000A34B002A04D000221A701E2802D005E059
:1042D0000122F9E7012A04D000230B70222802D022
:1042E00005E00623F9E7012A04D000230B702428F7
:1042F00002D005E00823F9E7012A04D000230B705F
:10430000252802D02FE00223F9E7012A02D000205D
:10431000087028E00420FBE78E48067023E00020A8
:104320008F49FF2609788C4B8C4691368B4A714316
:10433000CB188F180146C8314A008A498E5A41006D
:104340005E52894EB25A7A52401CC628F2DD60464F
:104350008349401CC0B20870052804D30D7002E0E8
:104360002670824805701026814B824A0021D22097
:1043700001960095FDF7E8FD152000907E487F49E5
:104380000078237880000A580021FA20FDF776FA99
:10439000162000907A487B490078237880000A58DC
:1043A0001021FA20FDF76AFA724A714B203220215F
:1043B000D22001960095FDF7C7FD172000907248A6
:1043C00072490078237880000A582021FA20FDF7EE
:1043D00055FA182000906E486E49007823788000C6
:1043E0000A583021FA20FDF749FA614B6AA24021B0
:1043F000D22001960095FDF7A7FD1920009067488F
:1044000067490078237880000A584021FA20FDF798
:1044100035FA574B63A25021D22001960095FDF743
:1044200093FD1A20009061480022FF27825E0F371B
:10443000237850213846FDF7EBF94D4B5CA2602103
:10444000D22001960095FDF77FFD1B2000905A4871
:104450000022825E237860213846FDF7D9F9444B6B
:1044600056A27021D22001960095FDF76DFD1C200B
:10447000009033480022825E237870213846FDF791
:10448000C7F93B4B4FA28021D22001960095FDF742
:104490005BFD1D2000902B480022825E2378802146
:1044A0003846FDF7B5F91E200090237847A29021E9
:1044B000CD20FDF7E3F91F200090237845A290213D
:1044C000EE20FDF7DBF920200090FF20237843A2A7
:1044D00090211830FDF7D2F921200090237841A2D5
:1044E000A021D220FDF7CAF922200090FF25053532
:1044F00023783EA2A0212846FDF7C0F92320009092
:1045000023783CA2B021E620FDF7B8F924200090E2
:1045100023783AA2C021D220FDF7B0F925200090DF
:10452000237838A2C0212846FDF7A8F9262000905C
:10453000237836A2E0213846FDF7A0F9FEBD000041
:104540003A0000203C0000203F0000201E00002018
:104550002600002041000020E4190020B4210020A2
:1045600040000020440A00201412002022000020F5
:1045700082F8000090410008310000204400002033
:1045800032000020D4000020330000208C000020E6
:1045900034000020F4000020545247003500002071
:1045A0001401002048504F53310000003600002015
:1045B00056504F53310000003800002048504F53F0
:1045C0003200000056504F533200000053544F50F9
:1045D0000000000053454E4431000000434C45416B
:1045E000520000005341564500000000564945570F
:1045F000000000004445434F444500004646543106
:104600000000000046465432000000003C2D00002F
:104610000346012000E058430A46491EC9B2002A59
:10462000F9D1704708B5FDF7E3FC0020FF22012116
:104630000090F02341320846FDF7E7FB08BD00007B
:1046400070B501250400ED074C4020D4441A01D276
:10465000001B0919C60D4B00F2B2FF2A29D01B0E10
:104660002CD000020C02D31A2C43DC40284305193D
:1046700010D2280A02D3401C6D0611D0761EF60512
:104680008019FF2A00DA70BDC00DC00570BD6940F9
:1046900000F0A4F801200543C541521C761CE8E750
:1046A00064089C40C90161408900E7D10124A0430E
:1046B000E4E71B0E440200D0034870BD002AFCD181
:1046C000C00FC00770BD00BF0000C07F0123020003
:1046D000DB050A430DD4DA4203D49A4207D4884258
:1046E0007047D84214D4D94212D4884270478042CD
:1046F0007047DA4203D59A42F9D5814270475B0090
:104700004200DA4204D24A00DA4201D281427047C2
:1047100010B5024AFCF726FD10BD00BF09001604C3
:1047200070B5420064414B005C41120E39D01B0E43
:1047300038D0FF2A3CD0FF2B3AD040024902400A31
:10474000490A060045184E43000A090AD218484390
:10475000ED017F3A0104731A4019190C4318990F9F
:1047600004D001215B0849075B1A521CD80904D305
:10477000401CF50301D19D0607D0FF2A08D2D505BC
:1047800006D0E4072043401970BD0125A843F4E793
:10479000002A01DCE00770BD2402FF202043C00591
:1047A00070BD1B0EFF2A03D0FF2B01D0E00770BDA8
:1047B000FF2645003606B54206D84D00B54203D85F
:1047C000D218FF2A00D0E7E7004870BD0000C07F84
:1047D00070B501250400ED074C4022D4441A02D2E2
:1047E0006C40001B0919C60D4B00F2B2FF2A4BD0DA
:1047F0001B0E50D000020C02D31A2C43DC40A843FD
:10480000051B05D5AD0019D36D08761E521E37D095
:10481000F605280A01D2801970BD70416D0603D0DB
:1048200070BD6940FFF712FF9C40090261404900DA
:1048300001D0401E70BD0124A04370BD6D081DD085
:1048400001202B0C01D12D0410302B0E01D12D0293
:1048500008302B0F01D12D01001DAB0F01D1AD0090
:10486000801CEB0F01D16D00401C6D00361A121A2E
:10487000680AF5054019012A02DB70BD002070BDF1
:10488000C036300AC00770BD1B0E440201D1FF2B99
:1048900000D1024870BD002AF0D070BD0000C07F7A
:1048A0000000000000000000000000000000000008
:1048B0000000000808080808080800001818000090
:1048C00000486C24120000000000000000000000FE
:1048D0000000002424247F1212127F121212000002
:1048E0000000081C2A2A0A0C1828282A2A1C080852
:1048F00000000022251515152A5854545422000092
:104900000000000C1212120A76252911916E000087
:104910000006060403000000000000000000000084
:104920000040201010080808080808101020400057
:1049300000020408081010101010100808040200EB
:104940000000000008086B1C1C6B08080000000039
:1049500000000000080808087F0808080800000098
:104960000000000000000000000000000606040334
:104970000000000000000000FE0000000000000039
:10498000000000000000000000000000060600001B
:10499000000080404020201010080804040202009B
:1049A00000000018244242424242424224180000C1
:1049B000000000080E08080808080808083E000063
:1049C0000000003C4242422020100804427E0000C9
:1049D0000000003C4242201820404042221C0000BF
:1049E000000000203028242422227E20207800008D
:1049F0000000007E0202021A26404042221C0000F3
:104A0000000000382402021A264242422418000004
:104A10000000007E22221010080808080808000084
:104A20000000003C4242422418244242423C000022
:104A3000000000182442424264584040241C0000F8
:104A40000000000000001818000000001818000006
:104A5000000000000000000800000000000808043A
:104A6000000000402010080402040810204000004C
:104A70000000000000007F0000007F000000000038
:104A8000000000020408102040201008040200006A
:104A90000000003C42424640201010001818000060
:104AA0000000001C225A555555552D42221C00006D
:104AB0000000000808181414243C224242E70000B9
:104AC0000000001F2222221E22424242221F00001A
:104AD0000000007C4242010101010142221C000051
:104AE0000000001F2242424242424242221F000076
:104AF0000000003F4212121E12120242423F00000A
:104B00000000003F4212121E1212020202070000B1
:104B10000000003C2222010101712122221C000020
:104B2000000000E7424242427E42424242E7000029
:104B30000000003E0808080808080808083E0000B1
:104B40000000007C10101010101010101010110F29
:104B50000000007722120A0E0A12122222770000A9
:104B6000000000070202020202020202427F00006D
:104B700000000077363636362A2A2A2A2A6B0000A9
:104B8000000000E346464A4A525252626247000021
:104B90000000001C2241414141414141221C0000D2
:104BA0000000003F424242423E0202020207000071
:104BB0000000001C2241414141414D53321C600024
:104BC0000000003F4242423E1212222242C7000031
:104BD0000000007C4242020418204042423E000095
:104BE0000000007F4908080808080808081C0000A1
:104BF000000000E74242424242424242423C000040
:104C0000000000E74242222424141418080800007F
:104C10000000006B494949495555362222220000BF
:104C2000000000E7422424181818242442E700005A
:104C3000000000772222141408080808081C00004D
:104C40000000007E2120101008040442423F0000B2
:104C50000078080808080808080808080808780004
:104C60000000020204040808081010202020404020
:104C7000001E1010101010101010101010101E0038
:104C800000384400000000000000000000000000A8
:104C9000000000000000000000000000000000FF15
:104CA00000060800000000000000000000000000F6
:104CB000000000000000003C4278444242FC00003A
:104CC000000000030202021A26424242261A000095
:104CD00000000000000000384402020244380000D6
:104CE00000000060404040784442424264D80000E6
:104CF000000000000000003C427E0202423C000036
:104D0000000000F08808087E08080808083E000037
:104D1000000000000000007C22221C023C42423CB9
:104D2000000000030202023A4642424242E700000B
:104D30000000000C0C00000E08080808083E0000E7
:104D40000000003030000038202020202020221ECB
:104D50000000000302020272120A161222770000FB
:104D60000000000E0808080808080808083E0000AF
:104D7000000000000000007F9292929292B7000023
:104D8000000000000000003B4642424242E70000B3
:104D9000000000000000003C42424242423C000051
:104DA000000000000000001B26424242221E0207B3
:104DB000000000000000007844424242447840E095
:104DC00000000000000000774C040404041F0000F1
:104DD000000000000000007C42023C40423E000017
:104DE000000000000008083E08080808083000001D
:104DF00000000000000000634242424262DC00000A
:104E000000000000000000E742242414080800000D
:104E100000000000000000EB494955552222000027
:104E2000000000000000007624181818246E00000E
:104E300000000000000000E74224241418080807BE
:104E4000000000000000007E22100808447E0000E0
:104E500000C0202020202010202020202020C00062
:104E60001010101010101010101010101010101042
:104E700000060808080808100808080808080600BE
:104E80000C32C20000000000000000000000000022
:104E90000000000000000000000000000000000012
:104EA0000000000000000000000000000000000002
:104EB00000000000000000000000000000000000F2
:104EC00000000000000000000000000000000000E2
:104ED00000000000000000000000C001C001C0018F
:104EE000C001C001C001C0018000800080008000BE
:104EF00080008000800000000000000000008001B1
:104F0000C003C0038001000000000000000000009A
:104F1000000000000000E01CE01CF01E700E3807CE
:104F200018030801840000000000000000000000D9
:104F30000000000000000000000000000000000071
:104F40000000000000000000000000000000000061
:104F500000000000000000000000000020102010F1
:104F6000201020102010FE7FFE7F1008100810086F
:104F70001008100810081008FE7FFE7F08040804BF
:104F800008040804080400000000000000000000FD
:104F9000000000000000000000010001C0076019CF
:104FA000103118311839183938017001E001C00387
:104FB0008007000F001D003900311C311C310C31FD
:104FC0000C11180DE00700010001000100000000B5
:104FD0000000000000000000000000001C10361857
:104FE0006308630C63046304630263026301361D98
:104FF0009C3780228063406340632063206330637A
:1050000010221836081C00000000000000000000FC
:10501000000000000000000000000000F000980107
:105020008C018C018C018C018C00CC007800183E26
:105030001C083608320863046304C304C3038343B3
:1050400006438E26781C00000000000000000000CF
:105050000000000000001C003C003C00300030005C
:1050600010000C000600000000000000000000001E
:105070000000000000000000000000000000000030
:105080000000000000000000000000000000000020
:105090000000000000000040002000100008000C8C
:1050A000000400060003000300038001800180016A
:1050B0008001800180018001800100030003000362
:1050C00000060006000C0008001000200040000050
:1050D0000000000000000200040008001000300082
:1050E00020006000C000C000C0008001800180017D
:1050F00080018001800180018001C000C000C000EB
:105100006000600030001000080004000200000091
:10511000000000000000000000000000000000008F
:1051200000018003800300011C713C79783DC007B9
:105130000001C007783D3C791C71000180038003A9
:1051400080010000000000000000000000000000DE
:10515000000000000000000000000000000000004F
:105160000000000100010001000100010001000138
:10517000FC7F0001000100010001000100010001AD
:10518000000000000000000000000000000000001F
:10519000000000000000000000000000000000000F
:1051A00000000000000000000000000000000000FF
:1051B00000000000000000000000000000000000EF
:1051C0001C003C003C003000300010000C000600C9
:1051D00000000000000000000000000000000000CF
:1051E00000000000000000000000000000000000BF
:1051F000FE7F000000000000000000000000000032
:10520000000000000000000000000000000000009E
:10521000000000000000000000000000000000008E
:10522000000000000000000000000000000000007E
:105230000000000000000000000000000000180056
:105240003C003C00180000000000000000000000CE
:10525000000000000000004000600020003000104E
:1052600000180008000C0004000600020003000102
:1052700080018000C000400060002000300010006D
:10528000180008000C0004000600020000000000E6
:10529000000000000000000000000000C007600CDB
:1052A00030181830183018200C600C600C600C603E
:1052B0000C600C600C600C600C601820183018300A
:1052C0003018600CC0070000000000000000000063
:1052D000000000000000000000000000000180014C
:1052E000F80180018001800180018001800180013E
:1052F00080018001800180018001800180018001A6
:105300008001C003F81F0000000000000000000042
:10531000000000000000000000000000E007101C7A
:105320000818043004300C300C300030001800082D
:10533000000400020001800040002020102008200E
:105340000430FC1FFC1F00000000000000000000F3
:10535000000000000000000000000000E003180E44
:105360000C0C0C180C180C180018000C0006C003CC
:10537000000E00180010003000300C300C300C1003
:105380000C18180CE00300000000000000000000F2
:10539000000000000000000000000000000C000EF3
:1053A000000E000F800E800E400E600E200E100EBC
:1053B000100E080E040E040EFE7F000E000E000EEE
:1053C000000E000E000EC07F000000000000000074
:1053D000000000000000000000000000F03FF03F6F
:1053E00010001000100008000800C807280C18184A
:1053F000081000300030003000300C300C30041841
:105400000418080CF0030000000000000000000079
:10541000000000000000000000000000800FC0102D
:10542000203010301800180008000C008C0F6C1889
:105430003C301C600C600C600C600C601860182024
:1054400030306018C00700000000000000000000BD
:10545000000000000000000000000000F83FF83FDE
:105460001C100C08040804040004000200020001DF
:1054700000010001800080008000C000C000C0006A
:10548000C000C000C00000000000000000000000DC
:10549000000000000000000000000000E007300CE9
:1054A00018180C300C300C301C3038187008E0071D
:1054B000B007180E0C1C06380630063006300630D1
:1054C0000C18180CE00300000000000000000000B1
:1054D000000000000000000000000000E0031804CD
:1054E0000C080C1806100630063006300630063858
:1054F0000C3C1836F03100300018001800180C0C65
:105500000C060C03F0010000000000000000000089
:10551000000000000000000000000000000000008B
:10552000000000000000000000008001C003C00374
:105530008001000000000000000000000000800169
:10554000C003C00380010000000000000000000054
:10555000000000000000000000000000000000004B
:1055600000000000000000000000C000C0000000BB
:10557000000000000000000000000000000000002B
:105580000000C000C000800080004000400000001B
:1055900000000000000000000000002000100008D3
:1055A0000004000600038001C00060003000180005
:1055B0000C00180030006000C000800100030006ED
:1055C000000400080010002000000000000000009F
:1055D00000000000000000000000000000000000CB
:1055E00000000000000000000000FE7F000000003E
:1055F000000000000000FE7F00000000000000002E
:10560000000000000000000000000000000000009A
:10561000000000000000000000000400080010006E
:1056200020006000C000800100030006000C00188C
:1056300000300018000C000600038001C00060006C
:10564000200010000800040000000000000000001E
:1056500000000000000000000000C0073018083003
:1056600008600C601C601C601C600030001C0006A0
:1056700000018000800080008000000000008001A8
:10568000C003C00380010000000000000000000013
:10569000000000000000000000000000C0076018CB
:1056A000103018200C2F8C4D864CC64CC64C664CC6
:1056B00066446644662666266615CC1C0C400820A7
:1056C00018303018C0070000000000000000000083
:1056D000000000000000000000000001C001C00147
:1056E000C0014001600320032003200330061006A0
:1056F00010061006F80F080C080C080C0C0C041807
:10570000041806181F7C00000000000000000000C4
:10571000000000000000000000000000FE07181C50
:10572000183818301830183018301818180CF807B6
:105730001818183018201860186018601860186061
:1057400018301818FE0F00000000000000000000D4
:10575000000000000000000000000000C0276038CA
:10576000103018200C400C40040006000600060013
:10577000060006000600060006000C400C400C2047
:1057800018303018C00700000000000000000000C2
:10579000000000000000000000000000FE03180EE2
:1057A0001818183018301830186018601860186011
:1057B00018601860186018601860183018301810D9
:1057C0001818180EFE030000000000000000000082
:1057D000000000000000000000000000FE3F183044
:1057E000182018601840180018081808180CF80F2E
:1057F000180C18081808180018001800184018404D
:1058000018201830FE3F00000000000000000000DB
:10581000000000000000000000000000FE7F187083
:10582000184018C018801800181018101818F81F01
:105830001818181018101800180018001800180070
:10584000180018007E0000000000000000000000AA
:10585000000000000000000000000000C013701CE9
:10586000101018100C200C20040006000600060082
:105870000600060006FC063006300C300C301830EE
:1058800018303008C00700000000000000000000D1
:105890000000000000000000000000003F7E0C1827
:1058A0000C180C180C180C180C180C180C180C18D8
:1058B000FC1F0C180C180C180C180C180C180C18D1
:1058C0000C180C183F7E00000000000000000000D3
:1058D000000000000000000000000000F81F800130
:1058E00080018001800180018001800180018001B0
:1058F00080018001800180018001800180018001A0
:1059000080018001F81F000000000000000000007E
:10591000000000000000000000000000E07F000622
:105920000006000600060006000600060006000647
:105930000006000600060006000600060006000637
:1059400000060006000600060E060E038E01FC008F
:105950000000000000000000000000007E7C18181D
:105960001808180418061802180198019801D8019F
:10597000B803380318071806180E180C181C181846
:10598000183018307EFC000000000000000000000D
:105990000000000000000000000000007E00180071
:1059A0001800180018001800180018001800180037
:1059B00018001800180018001800180018401840A7
:1059C00018201830FE3F000000000000000000001A
:1059D0000000000000000000000000001FF81C385C
:1059E0001C381C381C3C343434343434343674326F
:1059F0006432643264326431C431C431C431C4307D
:105A0000C43084309FFC0000000000000000000053
:105A10000000000000000000000000001F7C1C10BF
:105A20003C103410341074106410E410C410C4110D
:105A300084118413041304170416041E041C041C8C
:105A4000041C04181F1800000000000000000000E3
:105A5000000000000000000000000000C003300C47
:105A6000181808100C300C300660066006600660DE
:105A7000066006600660066006600C200C300810A8
:105A80001818300CC00300000000000000000000E7
:105A9000000000000000000000000000FE0F1818C9
:105AA00018301860186018601860186018301818DE
:105AB000F80F180018001800180018001800180037
:105AC000180018007E000000000000000000000028
:105AD000000000000000000000000000C003300CC7
